:02000002D0002C
:1040000000400D00B4870D00000006000D00050102
:084010000401BD0B00000000DB
:04401800DC810D003A
:1040200009480A49884208B505D0094A824202D0A7
:10403000121A03F0C3FF0748074A0021121A03F0BF
:10404000E5FF014808BD00BF28E4032024870D00D8
:1040500090E4032090E40320F0E7032070B5074EBE
:10406000074C02F0C7FAA41BA4080025A54200D102
:1040700070BD56F8043B98470135F7E7FC860D0004
:1040800020870D0000F040BF08B500F0D5FDBDE869
:10409000084002F071BA01F0FBBB01F0F9BB01F07E
:1040A000FFBB0078B0FA80F040097047012303702D
:1040B0007047000010B5064B03600446002180885D
:1040C00003F0DEF804F1100001F092FE204610BD6E
:1040D000F8810D0010B50446FFF7ECFF20462C21B7
:1040E00003F097F9204610BD70B504461948617376
:1040F0000125C4E900030499A260257304F11000AE
:1041000001F0E4FE144B667B2362144B6362AE4203
:104110004FF48063A3620CD0022E0DD03EB9A0886C
:10412000294603F0ADF82089314603F0A9F820466E
:1041300070BDA0883146F8E760682573431CF6D04F
:10414000294680B203F09CF8A088294603F0A9F81C
:10415000EDE700BFF8810D000000FA433333534010
:1041600010B50446008903F0B5F807EE900A94ED07
:10417000090AF8EEE77A67EE807A94ED0A0AB8EE5B
:10418000400A87EE800A10BD38B5457B012D0446F4
:104190000FD0022D22D03DBB0121808803F081F891
:1041A0000A2001F037F9A0882946BDE8384003F01D
:1041B00078B82946808803F063F82946A08803F080
:1041C00070F80A2001F026F9A088002103F069F8B0
:1041D000A0880021BDE8384003F052B84068431C75
:1041E00002D0012180B2E0E738BD10B50446FFF7E8
:1041F000CBFF20890121BDE8104003F082B8000008
:1042000010B5437B012B044604D9022B11D09FED3E
:104210000B0A10BDFFF7E9FF07EE900AB8EE670A38
:10422000DFED077A20EE270AF6EE007A20EE270A65
:10423000EFE7FFF795FFD4ED087AF7E700000000FD
:10424000287E0C3D03799FED040A002BFFEE007AD7
:1042500008BFB0EE670A7047000000000123037139
:104260007047002303717047704738B50469606870
:104270000125431C257309D0294680B203F000F8BC
:10428000A0882946BDE8384003F00BB838BD10B50A
:104290001021044603F0BDF8204610BD38B5044691
:1042A000006928B185680C2103F0B3F82846F8E7C7
:1042B000204638BD0069FFF7A3BF10B5044600686B
:1042C00018B101F0EDFA0023236010BD10B50446CB
:1042D000FFF7F3FF204610BD70B5D0E90056044645
:1042E000AE4208D005F1240001F082FD284601F01D
:1042F0007FFD3835F4E7206808B1FFF7D0FE20468F
:1043000070BD10B50446006808B1FFF7C8FE20462E
:1043100010BD70B5D0E900560446AE4204D0284620
:1043200001F066FD1035F8E7206808B1FFF7B7FE29
:10433000204670BD70B5037D05460E46CBB10368BF
:10434000DB6823B19A88042A17D09B68F9E70C49E7
:10435000102003F060F8044668B11022002103F039
:1043600055FE084B23600423A3802B692C61C4E90C
:104370000236284670BD2875FBE7DE60F9E700BF0E
:1043800084850D00100003002DE9F0418AB0044639
:1043900006AD02A81746984601F098FD2249284626
:1043A00001F071FD0498214B23600230FFF775FE88
:1043B000049AA06001460023013202A801F091FD99
:1043C000049AA368134400265E7008980230FFF731
:1043D00064FE089AE060014633460132284601F047
:1043E00080FD089BE2681A442846567001F000FDE3
:1043F00002A801F0FDFC0E4B0E492360284601F097
:1044000042FD2C20FFF747FE064628B100954346A3
:104410003A460221FFF768FE2661284601F0E8FCD3
:1044200020460AB0BDE8F08100820D0084830D00B3
:10443000AC830D00ED850D0030B52DED028B112004
:1044400083B002F047FF044603F0F4F936A3D3E942
:10445000002303F059FA03F04FFD08EE100A02F0B2
:104460007FFC354901F0E4FD02F07AFC9FED2E0B54
:10447000022101F0E1FE02F073FC304901F0D8FDA9
:1044800002F06EFC002C05464CDA2D2101F0D4FD23
:1044900061420A22284601F0E8FD284601F0CFFDDE
:1044A00002F05EFC264901F0C3FD02F059FCB0EEBB
:1044B000480A022101F0CBFEDFED227A38EE678A4E
:1044C000F2EE047AC8EE278A02F04AFC1E4901F097
:1044D000AFFD02F045FC0221B0EE680A01F0B7FE24
:1044E00018EE900A03F0B8F911A3D3E9002303F002
:1044F0000BFA164B002203F051F803F0FDFC01907B
:1045000002F02EFC124901F093FD02F029FC9DED12
:10451000010A022101F09BFE9DED010A03B0BDECF2
:10452000028B30BD2146B4E70000000000C8E93F1F
:10453000CDCCCCCCCCCCFC3F03820D000B820D004B
:1045400012820D000000FA4318820D000000404066
:1045500022820D000000000010B512202DED028B0C
:1045600002F0B8FE0028B8BF0330801007EE900AB2
:10457000F8EEE77ADFED2A8A17EE900A03F06CF97D
:1045800025A3D3E9002303F0BFF903F0B5FC08EE3F
:10459000100A02F0E5FB234901F04AFD02F0E0FBBE
:1045A0000221B0EE480A01F052FE0A24122002F065
:1045B00091FE0028B8BF0330801007EE900AF8EE95
:1045C000E77A642078EEA78A01F010FF013CEDD174
:1045D00002F0C6FB144901F02BFD02F0C1FBF2EE24
:1045E000047AC8EEA77A044617EE900A03F034F96D
:1045F00009A3D3E9002303F087F903F07DFC02212E
:1046000000EE100A204601F022FEB0EE480ABDEC92
:10461000028B10BDAFF300807FC2D9AD6532D93FA8
:10462000000000002C820D0039820D000000000007
:1046300030B52DED028B122083B002F04BFE044604
:1046400002F08EFB2C499FED2D8A01F0F1FC02F067
:1046500087FB231EB8BF03330546981007EE900A68
:10466000F8EEE77A142417EE900A03F0F5F820A389
:10467000D3E9002303F048F903F03EFC022100EEE9
:10468000100A284601F0E3FD122002F023FE002864
:10469000B8BF0330801007EE900AF8EEE77A642086
:1046A00038EE278A01F0A2FE013CEDD1F3EE047A48
:1046B000C8EE277A17EE900A03F0CEF80CA3D3E9E0
:1046C000002303F021F903F017FC019002F048FBEE
:1046D0000B4901F0ADFC02F043FB9DED010A022104
:1046E00001F0B5FD9DED010A03B0BDEC028B30BDBC
:1046F0007FC2D9AD6532D93F2C820D000000000089
:1047000039820D000000000070B52DED028B384C91
:104710009FED388A82B0002502F0F4FB03681B6924
:104720009847002837D002F0EDFB03689B69984753
:1047300052282AD1236813B900F074FE206002F0D9
:10474000E1FB03681B699847042812DD0095CDF84A
:10475000035002F0D7FB0622694601F09CFD0DF1E3
:10476000010003F019FC07EE900AB8EEE78A256015
:10477000D2E700F057FE2368C01A3228CCD902F0E5
:10478000C1FB03685B699847F1E702F0BBFB036874
:104790005B699847C0E702F0E3FA174901F048FC6B
:1047A00002F0DEFA064618EE100A03F055F80EA3E2
:1047B000D3E9002303F0A8F8104B002203F0CEF950
:1047C00004460D4645EC104B0221304601F034FD05
:1047D0002046294603F090FB00EE100A02B0BDEC23
:1047E000028B70BDAFF300807FC2D9AD6532D93F77
:1047F000B0E40320000000004A820D0000002440C5
:1048000038B501F0C1FD4FF4617490FBF4F101FB88
:10481000140402F0A5FAC4F5617405460A22214683
:1048200001F023FC284601F00AFC204638BD38B5CB
:10483000046805467CB16368013B63605BB923682B
:1048400020469B689847A368013BA3601BB9236877
:104850002046DB689847284638BD00002DE9F04126
:10486000304890B010EE904A11EE108A11EE905A36
:1048700012EE906A01F034FE404610EE107A02F01B
:10488000EBFF02460B463846CDE9082302F0E4FF71
:10489000CDE90601304602F0DFFFCDE904012846EC
:1048A00002F0DAFFCDE90201204602F0D5FFDDE992
:1048B0000823CDE900011C490CA801F02BFB1B4B80
:1048C0001B491B788DF800300AA80C9A09683C2314
:1048D00001F0FCFF00200A9C00F0FCFE20B1637890
:1048E00013B900F08DFFFAE76378BFF35B8F651CA7
:1048F00053B900240BA8FFF79AFF0CA801F078FA2F
:10490000204610B0BDE8F081002000F0E3FE20B1A9
:104910002B7813B900F074FFFAE72378012BE8D164
:10492000247BE7E7CCE403205B820D00A1E40320B5
:10493000B8E503202DE9F74FD0E9008A0F466FF064
:1049400078431146AAEB0802B3EB221F81464FEAD7
:10495000221402D12B4802F065FD012C224638BFFB
:104960000122A418A7EB08064AD24CB19C4228BFEA
:104970001C4620010191FFF78EFB0199054600E0DE
:104980002546A81901D001F0A1FAAB464646B74228
:104990000AD0BBF1000F03D03146584601F096FA19
:1049A00010360BF1100BF2E7A6EB080710372F4477
:1049B0003B46B346D3450AD1AAEB060637444646E2
:1049C00056450ED0304601F013FA1036F8E7594636
:1049D0001846019301F07AFA019B0BF1100B10338A
:1049E000E8E7B8F1000F02D04046FFF758FB05EBAF
:1049F0000414C9E90057C9F8084003B0BDE8F08FB6
:104A00001C46B6E7EC820D0038B502460948D0E9ED
:104A100001418C42054608D01CB11146204601F0E8
:104A200055FA6B6810336B6038BD2146FFF782FF83
:104A3000FAE700BFA4E403202DE9F84FD0E900878E
:104A4000A7EB0804A310244C5C43244B9C4206466D
:104A50008946934602D1224802F0E4FC012C22460A
:104A600038BF0122A418A1EB080532D244B19C4200
:104A700028BF1C460C206043FFF70DFB824600E078
:104A8000A2461AEB05031CBF9BE8070083E807005A
:104A9000002D04DD2A464146504603F09DFAA7EB5F
:104AA00009070C35002F554404DD3A46494628468F
:104AB00003F084FA3D44B8F1000F02D04046FFF7FE
:104AC000EEFA0C2000FB04A4C6E900A5B460BDE822
:104AD000F88F1C46CEE700BFABAAAAAAAAAAAA0AC8
:104AE000EC820D0008B5D0E90032D21A044B9210C6
:104AF0005A43914202D3034802F097FC08BD00BF1D
:104B0000ABAAAAAAA2820D0070B52DED028B304887
:104B1000D0E900439C4253D00021FFF7E3FF246813
:104B20009FED2C8A01F030FC236820461B689847D3
:104B300010EE106A02F014F9274901F079FA02F038
:104B40000FF90546304602F087FE1FA3D3E9002384
:104B500002F0DAFE03F0D0F9022100EE100A284636
:104B600001F075FB1425236820461B6898476420D4
:104B700038EE008A01F03AFC013DF4D1F3EE047AFC
:104B8000C8EE277A17EE900A02F066FE0EA3D3E96C
:104B9000002302F0B9FE03F0AFF908EE100A02F0AC
:104BA000DFF80E4901F044FA02F0DAF80221B0EE23
:104BB000480A01F04CFBB0EE480ABDEC028B70BD18
:104BC0009FED048AF7E700BF7FC2D9AD6532D93FB8
:104BD000E4E403200000000006830D000E830D00B6
:104BE00010B51348D0E900439C4217D00021FFF7CD
:104BF00079FF246801F0C8FB236820461B689847AA
:104C000010EE100A02F028FE07A3D3E9002302F0F9
:104C10007BFE03F071F900EE100A10BD9FED050A4E
:104C2000FBE700BFAFF300807FC2D9AD6532D93F4B
:104C3000E4E40320000000002DE9F04F2DED068B89
:104C40008BB000F0E5FD00F0EBFD10B1002000F0AE
:104C5000F7FDA14DDFF8989200F0E4FB2B789F4917
:104C60008DF800309E4A09683C23044606A801F0EE
:104C70002DFE07A8FFF7DBFD0021032002F011FB4A
:104C80004FF4FA7001F0B2FBFFF7AAFFB0EE408AD2
:104C9000FFF73AFFF0EE408AFFF75EFCB0EE409A75
:104CA000FFF7C6FCF0EE409AFFF72EFDB0EE40AAEB
:104CB000FFF7C2FBF0EE40AA02F052F80A22FF21F1
:104CC000064601F0D2F9304601F0B9F9854800F006
:104CD00086FE074602F044F8834901F0BCF902F071
:104CE0003FF80A223946064601F0BFF9304601F086
:104CF000A6F902F035F87D4901F0ADF94FF4FA70EC
:104D000001F074FB0121032002F0CBFA70A7D7E970
:104D100000674FF0000800F085FB001B02F07AFDF1
:104D200032463B4602F01AFF42464B4603F05EF81D
:104D300030B100F075FD18B901F009FB0028EAD088
:104D400042F2107001F052FB0FF28419D9E9008988
:104D5000674F4FF0000A002600F064FB001B02F0D2
:104D600059FD42464B4602F0F9FE32463B4603F0FF
:104D70003DF8002853D101F017FB112870D101F044
:104D80001FFB0A286CDC00F04DFB5449DFF87491DE
:104D9000584F044606A801F099F8574906AA02A8F8
:104DA00001F0B8F806A801F023F82B78029A5349CD
:104DB0008DF8003006A83C2301F088FD07A8FFF716
:104DC00036FD4FF00008002600F02CFB001B02F01F
:104DD00021FD42464B4602F0C1FE32463B4603F0FF
:104DE00005F80028F0D1464B1A7D0AB102221A724A
:104DF000FFF706FD4FF47A7141434148FFF79AFAF5
:104E00003F4906A800F072FF06A8FFF756FA02A86D
:104E100000F0EEFF0BB0BDEC068BBDE8F08F00F0AC
:104E2000FFFC0028A7D0BAF1000FA4D1F0EE6A2A47
:104E3000B0EE4A2AF0EE691AB0EE491AF0EE680AAE
:104E4000B0EE480AFFF70AFD824601F089FF0A2208
:104E50008346514601F009F9584601F0F0F87BE726
:104E6000002306A8CDE906338DF820300FF2600943
:104E7000D9E9008901F035FC1D4F002600F0D0FC77
:104E800090B91F4B1A7DFAB9FFF7BAFC4FF47A714B
:104E900041431B48FFF74EFA06A8194900F026FFC8
:104EA00006A8FFF70AFAB5E700F0BCFA001B02F00B
:104EB000B1FC42464B4602F051FE32463B4602F000
:104EC00095FF0028DAD1DCE702221A72DCE700BF86
:104ED00000000000004CED40A0E40320B8E50320F2
:104EE00019830D00D4E403201E830D0027830D00D9
:104EF0000000084000C082402D830D004C830D004F
:104F0000B4E4032000408F402DE9F0438DB001F060
:104F100027FF4FF4165101F017FF01F0F3FF4FF494
:104F2000165101F0EBFF0023082218460124ADF8CA
:104F3000202047F2305108AAADF82230099400F041
:104F40008FFC2146032002F09BF9364908A800F0A7
:104F5000BDFF1420FFF79FF8044628B14FF0FF3340
:104F6000122208A9FFF710FA08A800F041FF2369F0
:104F70002D4A5A6223692D4A1A622369059440F624
:104F8000FF722B4C9A620A226423CDE90623D4E9EE
:104F90000132934228D01BB105AA07CA83E8070053
:104FA00063680C336360DFF89090DFF8848000253D
:104FB0000C27D4E900639B1B9B1009FB03F39D4264
:104FC00018D229464046FFF78DFD07FB05F308A8D8
:104FD000F358996800F057FF08A8FFF715FD08A8D7
:104FE00000F006FF0135E4E705AA19462046FFF761
:104FF00023FDD8E70F4800F09AFC00221146CDE9C6
:105000000122009201230B4800F0B6FD41F2E82195
:10501000084800F013FD074800F099FD0DB0BDE809
:10502000F08300BFB8E503203333534066669843EE
:10503000E4E40320D4E40320ABAAAAAA10B5083004
:1050400001228A4213DA0346144673ED017A13ED06
:10505000017AF4EEC77AF1EE10FA05D5013C83ED42
:10506000007A43ED017AF0D101320430E9E710BD56
:1050700038B5084D043001238B4206DA05EB830274
:1050800050F8044B14600133F6E70248FFF7D6FFEF
:10509000004838BDF0E40320F8B52DED028B0F6811
:1050A0000D4639460646FFF7E3FF07EBD774641059
:1050B00000EB840494ED007A0346002297420FDD52
:1050C000D3ED007A77EEC77A0132F5EEC07AF1EED1
:1050D00010FA48BFF1EE677AC3ED007A0433EDE7CA
:1050E0003946FFF7ABFF94ED008AB5EEC08AF1EECA
:1050F00010FA46BFF1EE487A17EE900A18EE100A41
:1051000002F0AAFB22A3D3E9002302F06FFE2C6871
:10511000DFED1D7A00282146304618BFB0EE678AC1
:10512000FFF7A6FF04EBD474641000EB84040023A3
:105130001649D4ED006A32461C46B0EE0C6A286867
:10514000984218D9B2EC017A77EE665A0133C5EE6F
:10515000887AF5EEC07AF1EE10FA48BFF1EE677A80
:10516000F4EEC67AF1EE10FA42BF01EB840080ED56
:10517000007A0134E3E70549A200304602F01EFF41
:10518000BDEC028B2C60F8BDCDCCCC3DF0E403200F
:105190009A9999999999B93F2DE9FF411F46037949
:1051A00005460E469046002B46D00298264B0093AB
:1051B0006FF06043984234BF80004FF0FF30FEF73D
:1051C0006CFFCDE9010600240394A64214DD2B6890
:1051D00028461B689847DDE902329A4207D2019BB4
:1051E00003EB820383ED000A039B013303934046E4
:1051F00001F0FCF80134E8E747B101F0B1FD1349D3
:1052000000F029FF019803A9FFF746FF039B0199CE
:105210009FED0F7A0022934205DDF1EC017A013215
:1052200037EE277AF7E707EE903AF8EEE77A87EE5F
:10523000270A04B0BDE8F08101F092FD054900F0B5
:105240000AFFBFEE000AF4E79C830D0053830D00B4
:10525000000000005C830D00F8B5344B344D354F31
:1052600001261E70344B08221A703146304600F079
:10527000F1F83248324900242A46C0E900448460EB
:1052800002F0C2F82F4BBB603C60BC80BC710220B6
:1052900000F008FA2A462C49384602F0B5F82146B3
:1052A000304600F00FFA2948294984602A46C0E9AF
:1052B000004402F0A9F82748274F284984602A466D
:1052C000C0E9004402F0A0F82146384601F0B2F8E7
:1052D0003846234F23492A4602F096F82249384699
:1052E00000F0D1FD2A462149384602F08DF82048C9
:1052F0002049A0F809400346021D43F8092B067512
:105300009C701D4E1D4B43602A46C0E90344047245
:1053100002F07AF82146304600F001FB2A4630467A
:105320001749BDE8F84002F06FB800BFA0E40320C1
:1053300090E4032094E40320A1E40320A4E40320E8
:1053400013430D000000FFFFCD420D00E4E40320F5
:1053500003430D00D8E40320CCE40320D9420D0020
:10536000B8E5032055640D0069830D00F15D0D0063
:10537000B4E403209D420D00D4E403201000030098
:105380005D590D0008B5024B1B689B68019308BD71
:105390006802030008B5024B1B68DB68019308BD77
:1053A0006802030008B5024B1B685B68019308BDE7
:1053B0002C02030008B5024B1B689B68019308BDD3
:1053C0002C02030008B5024B1B68DB68019308BD83
:1053D0002C02030008B5024B1B681B69019308BD32
:1053E0002C02030008B5024B1B681B6B019308BD20
:1053F0002C02030008B5024B1B68DB6C019308BD4F
:105400002C02030008B5024B1B685B68019308BDC2
:105410001802030008B5024B1B68DB68019308BD46
:105420001802030008B5024B1B685B69019308BDB5
:105430001802030008B5024B1B689B6D019308BD61
:105440001802030008B5024B1B685B6E019308BD90
:105450001802030008B5024B1B685B6E019308BD80
:105460003402030008B5024B1B685B6C019308BD56
:105470004802030008B5024B1B689B6C019308BDF2
:105480004802030008B5024B1B685B69019308BD25
:105490006402030008B5024B1B681B68019308BD3A
:1054A0003C02030008B5024B1B68DB68019308BD92
:1054B0003C02030008B5024B1B681B69019308BD41
:1054C0003C02030008B5024B1B685B69019308BDF1
:1054D0003C02030008B5024B1B689B69019308BDA1
:1054E0003C02030008B5024B1B68DB69019308BD51
:1054F0003C02030008B5024B1B681B6A019308BD00
:105500003C02030008B5024B1B689B6A019308BD6F
:105510003C02030008B5024B1B68DB6A019308BD1F
:105520003C02030008B5024B1B68DB68019308BD11
:105530002802030008B5024B1B689B69019308BD54
:105540002802030008B5024B1B68DB69019308BD04
:105550002802030008B5024B1B681B6A019308BDB3
:105560002802030008B5024B1B685B6A019308BD63
:105570002802030008B5024B1B689B6A019308BD13
:105580002802030008B5024B1B68DB6A019308BDC3
:105590002802030008B5024B1B681B6B019308BD72
:1055A0002802030008B5024B1B685B6B019308BD22
:1055B0002802030008B5024B1B681B6C019308BD51
:1055C0002802030008B5024B1B689B6C019308BDC1
:1055D0002802030008B5024B1B68DB6C019308BD71
:1055E0002802030008B5024B1B681B6D019308BD20
:1055F0002802030008B5024B1B68DB69019308BD54
:105600003002030008B5024B1B681B6A019308BDFA
:105610003002030008B5024B1B681B68019308BDEC
:105620004C02030008B5024B1B685B68019308BD80
:105630004C02030008B5024B1B681B69019308BDAF
:105640004C02030008B5024B1B685B69019308BD5F
:105650004C02030008B5024B1B689B69019308BD0F
:105660004C02030008B5024B1B68DB69019308BDBF
:105670004C02030008B5024B1B681B6A019308BD6E
:105680004C02030008B5024B1B681B6D019308BD5B
:105690006002030008B5024B1B681B68019308BD3C
:1056A0002002030008B5024B1B685B68019308BD2C
:1056B0002002030008B5024B1B685B69019308BD1B
:1056C0002002030008B5024B1B68DB6A019308BD8A
:1056D0002002030008B5024B1B68DB6C019308BD78
:1056E0002002030008B5024B1B685B6D019308BDE7
:1056F0002002030008B5024B1B689B6D019308BD97
:105700002002030008B5034B1B68D3F888300193CF
:1057100008BD00002002030008B5034B1B68D3F846
:105720009430019308BD00002002030008B5034B2C
:105730001B68D3F8AC30019308BD000020020300C1
:1057400008B5024B1B685B68019308BD400203006B
:1057500008B5024B1B689B68019308BD400203001B
:1057600008B5024B1B68DB68019308BD40020300CB
:1057700008B5024B1B681B69019308BD400203007A
:1057800008B5024B1B685B69019308BD400203002A
:1057900008B5024B1B689B69019308BD40020300DA
:1057A00008B5024B1B68DB69019308BD400203008A
:1057B00008B5024B1B681B6A019308BD4002030039
:1057C00008B5024B1B681B6B019308BD4002030028
:1057D00008B5024B1B685B6B019308BD40020300D8
:1057E00008B5024B1B681B6C019308BD4002030007
:1057F00008B5024B1B685B6C019308BD40020300B7
:1058000008B5024B1B689B68019308BD4402030066
:1058100008B5024B1B68DB68019308BD4402030016
:1058200008B5024B1B685B69019308BD4402030085
:1058300008B5024B1B681B6A019308BD44020300B4
:1058400008B5024B1B68DB6A019308BD44020300E4
:1058500008B5024B1B681B6B019308BD4402030093
:1058600008B5024B1B689B6B019308BD4402030003
:1058700008B5024B1B68DB6B019308BD44020300B3
:1058800008B5024B1B685B6C019308BD4402030022
:1058900008B5024B1B681B68019308BD1C0203007E
:1058A00008B5024B1B685B68019308BD1C0203002E
:1058B00008B5024B1B689B68019308BD1C020300DE
:1058C00008B5024B1B685B6A019308BD1C0203000C
:1058D00008B5024B1B68DB6A019308BD1C0203007C
:1058E00008B5024B1B681B6B019308BD1C0203002B
:1058F00008B5024B1B685B6C019308BD1C020300DA
:1059000008B5024B1B68DB6C019308BD1C02030049
:1059100008B501F051FDBDE8084001F0ACBB10B581
:105920000446017009B1FFF7F3FF204610BD08B52A
:1059300001F042FD01F09BFB18B901F03DFD01F0C3
:105940005DFB01F039FDBDE8084001F090BB08B5F2
:1059500001F032FDBDE8084001F096BB10B50378B8
:1059600004460BB1FFF7F3FF204610BD10B5044607
:105970000068FFF7ECFF204610BD30B587B00D463C
:105980000190FFF7C5FF6B238DF808300023012439
:1059900003930A2305938DF8104001F00DFD02A931
:1059A00001F049FB01F008FD036829469B68984710
:1059B00001F002FD214601F056FB039401F0FCFCCE
:1059C00002A901F021FB01F0F7FC03685B6998472D
:1059D000044601A8FFF7CAFFE0B207B030BD0921B5
:1059E000FFF7CBBF70B586B014460D460190FFF7A8
:1059F0008FFF6B238DF808300023039301260A23C1
:105A000005938DF8106001F0D7FC02A901F013FB9B
:105A100001F0D2FC036829469B68984701F0CCFC52
:105A2000036821469B68984701F0C6FC314601F0A7
:105A30001AFB01A8FFF79AFF06B070BD37B5044600
:105A40000D460190FFF764FF00212046FFF795FF08
:105A500041F2A8139D4200F0870266D02ED841F291
:105A600068039D4258D01AD840F6C8739D4250D062
:105A70000ED840F628739D4245D040F678739D427B
:105A80003FD0002401A8FFF771FF204603B030BDCE
:105A900041F218039D42F4D142F0180233E041F282
:105AA00008139D423BD041F258139D423AD041F237
:105AB000B8039D42E5D142F0280224E041F2E823F8
:105AC0009D423BD00ED841F248239D4230D041F256
:105AD00098239D422FD041F2F8139D42D1D142F03C
:105AE000480210E041F288339D422AD041F2D83377
:105AF0009D4229D041F238339D42C2D142F0680222
:105B000001E042F0080220460021FFF76BFF01246C
:105B1000B8E742F01002F6E742F02002F3E742F065
:105B20003002F0E742F03802EDE742F04002EAE7E7
:105B300042F05002E7E742F05802E4E742F0600228
:105B4000E1E742F07002DEE742F07802DBE713B5EE
:105B500004460190FFF7DCFE00212046FFF70DFF11
:105B6000002100F07F022046FFF73CFF01A8FFF76D
:105B7000FDFE012002B010BD2DE9F3470C469DF853
:105B800028A09DF82C909DF830800190054617467E
:105B90001E46FFF7BDFE002C0CBF002480240FB171
:105BA00044F040040EB144F02004BAF1000F01D0DB
:105BB00044F01004B9F1000F01D044F00804B8F12A
:105BC000000F01D044F0040402212846FFF7D5FE5F
:105BD00000F0010044EA000202212846FFF702FF1C
:105BE00001A8FFF7C3FE012002B0BDE8F087002244
:105BF00040681146FFF7DCBD002240681146FFF700
:105C0000E7BD40680022FFF7DBBD4068002281F05D
:105C10000101FFF7C5BD002340681A461946FFF78A
:105C2000B7BD002340681A461946FFF7A9BD0022F8
:105C300040681146FFF79CBD002240681146FFF7FF
:105C400087BD406800220221FFF78ABD002340681B
:105C50001A46FFF775BD0000024B03225A60024A44
:105C60001A607047C8E50320C4830D0010B50446D0
:105C700008462170FFF7BEFC00236360204610BD7C
:105C800010B50446006818B1FFF70AFE0023236030
:105C900010BD38B5B1F9043083800B460D4653F87A
:105CA000062FC0F806209B8843810446FFF7E8FFD3
:105CB0002B6813B1236000232B60204638BD000001
:105CC00038B50C460546FFF7DBFF44B12088FFF7E7
:105CD000DFFD286028B12288214602F06FF90020FC
:105CE00038BD0148FCE700BFFCFEFFFFF0B52D4DBD
:105CF0000B7D04468BB00846AF1D002B38D00B68D7
:105D00001B79002B34D00022274B049302A90430C6
:105D10000292ADF80C208DF80E20FFF707FDDDF89C
:105D20000E30C5F8063000B2BDF81230ADF80C00E8
:105D3000A8800299BB802846FFF7C2FF02A8FFF7A0
:105D40009FFF00232360A380A37123814FF6FF737D
:105D50006381B5F90430A3803B68C4F80630BB8882
:105D6000296863812046FFF7ABFF20460BB0F0BDEA
:105D700000262023CDE902360C4B00930C49334614
:105D800002AA3220FFF77EFC074B049302A94FF6CC
:105D9000F263044802968DF80E60ADF80C30FFF700
:105DA00078FFCBE7D0E503200000FFFFFF830D0065
:105DB000F8830D0010B5094B094C022200201A602F
:105DC000084B2060A080A071A360FFF76BFC204609
:105DD000054A0649BDE8104001F016BBDCE503208A
:105DE000D0E503200000FFFF90E40320CD420D002A
:105DF00010B504460068FFF753FD204610BD10B5EE
:105E00000446006808B1FFF74BFD0023C4E90133E5
:105E1000236010BD38B504460D4600680131FFF718
:105E200047FD10B1C4E90005012038BD10B5036875
:105E3000044623B143688B4201D3012010BD2046A4
:105E4000FFF7E8FF0028F9D0A368002BF5D12268FE
:105E50001370F2E737B50D46114601920446FFF77D
:105E6000E5FF019A28B92046FFF7C9FF204603B095
:105E700030BDA2602946206802F0A0F82268A3681D
:105E80000021D154F2E7002313B5C0E900330446E2
:105E90008360037341B10846019102F000F9019952
:105EA00002462046FFF7D6FF204602B010BD8842CA
:105EB00010B5044605D00B682BB18A681946FFF768
:105EC000C9FF204610BDFFF79AFFFAE710B500237F
:105ED0000446C0E9003383600373FFF7E8FF204600
:105EE00010BD58B50E462AB121B18468A34202D331
:105EF00000230B7058BDE41A013A0168944228BF90
:105F0000144619442246304602F0D1F80023335596
:105F1000F0E700000EB470B587B00BAD044655F83D
:105F2000042B01922B46052104A80395FFF7C8FC1A
:105F30000B4906462046FFF7A6FF31462046FFF7ED
:105F400075FF206830B1019A03952B46711CFFF74D
:105F5000B7FCA060204607B0BDE8704003B07047B2
:105F6000ED850D0010B50446006808B1FFF782FA10
:105F7000204610BD10B58368044613B103220146C4
:105F80009847204610BD0B68036013B15A68013270
:105F90005A60704713B50B460246D0E900016C46C3
:105FA00084E8030093E8030082E8030094E8030018
:105FB00083E8030002B010BD10B5064C0023204654
:105FC0002360FFF74FFA2046034A0449BDE810401A
:105FD00001F01ABAE0E5032090E40320655F0D00AC
:105FE000F8B506460D468F180024BD420CD0336824
:105FF00015F8011B9B6830469847031E01DB1C44C3
:10600000F3E7002C08BF1C462046F8BD13B5044634
:10601000084659B1019102F042F823680199DB6802
:106020000246204602B0BDE81040184702B010BD3D
:1060300008B5FFF7EBFF08BD03689B68184738B544
:106040000D210546FFF7F8FF0A2104462846FFF711
:10605000F3FF204438BD38B50546FFF7D7FF0446A7
:106060002846FFF7ECFF204438BD30B58BB0002345
:106070008DF82430012A98BF0A2209AC0D46B1FBE5
:10608000F2F101FB125303F0FF03092B94BF3033ED
:106090003733DBB2AA4204F8013DEFD92146FFF7BE
:1060A000B5FF0BB030BD00002DE9F74F55EC104B9C
:1060B00006460F4610EE102A10EE100A2B4629460F
:1060C00001F0BCFE40B153493046FFF79FFF8246C6
:1060D000504603B0BDE8F08F25F000494E4B4FF01D
:1060E000FF322046494601F0A9FE48B94A4B4FF01D
:1060F000FF322046494601F083FE08B94749E3E7ED
:10610000474B4FF060422046294601F08DFE08B112
:106110004449D9E7444B4FF060422046294601F0FC
:1061200065FE0028F4D1002200232046294601F014
:106130005DFED0B12D213046FFF77EFF05F1004313
:1061400082461D463949DFF8EC904FF0000B0020E5
:106150004FF000085FFA8BF39F4208D942464B4646
:1061600001F0FCFC0BF1010BF4E78246EAE7224662
:106170002B4601F013FA0D46044601F09DFE8046C1
:1061800001F048FB02460B462046294601F004FA7E
:106190000A2204460D4630464146FFF766FF824418
:1061A00027B123493046FFF731FF8244DFF884905E
:1061B0004FF00008013FFFB2FF2F89D042464B4607
:1061C0002046294601F0A0FB04460D4601F04CFE96
:1061D000B0F1000B1ADA2D213046FFF72DFFCBF17D
:1061E000000103460A2230460193FFF73EFF019B60
:1061F00018448244584601F01DFB02460B462046D7
:10620000294601F0C9F904460D46D3E75946002353
:10621000E8E700BF26840D00FFFFEF7F2A840D0012
:10622000FFFFEF412E840D00FFFFEFC10000E03FB4
:1062300024840D000000244038B5C9B20546FFF79C
:1062400033FF04462846FFF7FAFE204438BD38B530
:10625000044610EE100A0D4601F0FEFA41EC100B58
:1062600029462046BDE83840FFF7E6BF10B5044692
:10627000FFF7D8F8E060236820465B69984700285C
:1062800008DAFFF7CFF8E368C01AA3689842F2D3A0
:106290004FF0FF3010BDF8B506460D4617460024F6
:1062A000BC4207D03046FFF7E1FF031E02DB2B554F
:1062B0000134F5E72046F8BD014B024A1A607047E9
:1062C000E4E5032032840D002DE9F041154ADFF8A2
:1062D0006080D2E90032C01842EB0101124AD2E9D3
:1062E0000032C61841EB0207D8E90023BB4208BFC1
:1062F000B2428CB013D003A96846CDE90067FFF71E
:10630000FFFA089B094D03F26C7303AC08930FCCA2
:106310000FC50FCC0FC5C8E9006723682B600CB010
:10632000BDE8F08118E6032010E60320ECE5032029
:1063300020E6032008B50020FFF78AFA28B1FFF70E
:106340006FFA80F00100C0B208BD0120FCE710B573
:106350000020FFF76FF80446A0B9FFF79BF901286A
:1063600010D12046FFF7C6F960B9FFF7E3FF10B977
:10637000FFF746FAF9E7FFF7DDFFBDE81040002020
:10638000FFF758B8204610BD1FB5FFF7E0FF1022F9
:106390000021684601F03AFE00216846FFF752F8F6
:1063A000009805B05DF804FB08B5FFF7EDFFC117D5
:1063B000FFF78AFF014B986808BD00BFECE503209A
:1063C00008B5FFF7E1FFC117FFF77EFF014B5868E3
:1063D00008BD00BFECE50320024B1A68024B1A60AF
:1063E000704700BF28E40320E8E503200021FFF701
:1063F00061B910B50446FFF7BDFD204610BD000091
:106400000348044A04490023836000F0FDBF00BF35
:1064100028E6032090E40320F3630D00006800F0F9
:106420002ABE10B50446016002710AB1FFF7F6FFFB
:10643000204610BD13B50446019100F0BDFF019A3E
:1064400001462046FFF7EDFF204602B010BD006870
:1064500000F01ABE10B5037904460BB1FFF7F7FF41
:10646000204610BD2DE9FF4104460D4617461E4645
:10647000FFF7D4FF36238DF8003000232068019306
:106480004FF001080A23694603938DF8088000F055
:10649000D2FD2068036829469B68984720684146DA
:1064A00000F0E1FD054640B16FF09F052046FFF783
:1064B000CEFF284604B0BDE8F08102232068019396
:1064C000694600F0A1FD0228EED1206803685B69EF
:1064D00098473870206803685B6998473070E5E733
:1064E00007B500238DF806308DF807300DF1060250
:1064F0000DF107030421FFF7B5FFB0B99DF80700C0
:1065000001F098F90A4B002201F0FEF901F0F4FCC9
:106510009DF8063000EE103A07EE900AB8EEC00A79
:1065200037EE800A03B05DF804FBBFEE000AF9E71E
:106530000000703F014B1860704700BF2CE403203F
:1065400008B50B4B43B100F00BFC03681B6998477F
:10655000002801DDAFF30080064B43B100F0D2FC10
:1065600003681B699847002801DDAFF3008008BD70
:10657000000000000000000008B5FFF7E1FFFEF793
:1065800051FF014B186008BDBCE703200248034AD5
:106590000349121A01F012BD00F4032004F4032091
:1065A00020870D0007B5002300931A466FF077018E
:1065B000FFF7B2F803B05DF804FB000007B54388AD
:1065C0000A2B08D0502B0BD1094B1B684BB103B0E1
:1065D0005DF804EB1847FFF7E5FF03B05DF804FB37
:1065E000002300931A466FF07701FFF795F8F4E760
:1065F0003CE6032038B5124C1248134D0021FFF73A
:1066000077F92368AB42114B0CBF012200221A70AC
:1066100002D0FFF7BBFF2560FEF7F4FE044601F051
:10662000FDFC0B4B13B12046AFF30080002108485E
:10663000FFF71EF9BDE8384006480021FFF762B8B1
:1066400000F4032035650D001E1C279A38E6032050
:1066500000000000BD650D0070470020704710B5B8
:106660001021044600F0D5FE204610BD08B5FFF706
:10667000F6FF08BD30B500224FF69C74026084809E
:106680008D888C800C68858004600A6030BD10B5F0
:1066900004460068FFF704F9204610BD38B5C46809
:1066A000F4B12378022B03D104F10C00FFF7EFFFC4
:1066B000656835B12846FFF75DFC1021284600F0DB
:1066C000A8FEA56835B12846FFF754FC10212846DE
:1066D00000F09FFE20461421BDE8384000F099BE2E
:1066E00038BD07B50823ADF8003003688DF80230D7
:1066F000037A8DF803300021436801936846FFF761
:10670000BFF803B05DF804FB73B50E46044656F8B7
:10671000043B00930D4601A83146FFF734FC019A73
:10672000009B6260236001A8002301930093FEF7A1
:106730007EF83046FEF77BF82846082100F069FE17
:10674000204602B070BD826810B50AB900F089FE1B
:10675000BDE81040C368184708B5006800F1100193
:10676000FFF7F1FF08BD826810B50AB900F079FEA5
:10677000BDE81040C368184708B5006800F1100173
:10678000FFF7F1FF08BD000038B5002304460360A1
:1067900010200D46FDF77FFC28B10123C0E901332D
:1067A000024B0360C5602060204638BD5C840D004C
:1067B00038B5002383608B6804460D462BB1022256
:1067C0009847EB68E360AB68A360204638BD0000E3
:1067D000F0B589B004686846FFF74CFF4FF002033C
:1067E000D4E84F2F002A03D1C4E8413F0029F7D154
:1067F00025D104F10C0569462846FFF73BFFBFF39E
:106800005B8F01236370002004F10803BFF35B8FEB
:1068100053E8006F43E80002002AF9D1BFF35B8F11
:106820006EB1FEF757FF78B129463046FFF78BFF70
:106830003046FFF79FFB1021304600F0EAFD684626
:10684000FFF725FF09B0F0BD314602A8FFF7B0FF02
:10685000E068B4F9105008B101F004FC0690102073
:10686000ADF81C50FDF717FC0546E8B1002787601E
:106870001820FDF710FC044688B10146876002A885
:10688000FFF788FB049BA268A360059B049206A9FE
:10689000E268E36004F110000592FFF7EBFE084B9D
:1068A000EB60084B2C60AB6006A8FFF7F0FE02A877
:1068B000FFF760FB002229460348FEF713FFB7E706
:1068C00059670D00F1690D00596F0D002DE9F04772
:1068D0008AB005469DF848900C4617469846FEF744
:1068E0009FFF07AE824638BB4FF62E73059005A971
:1068F0003046ADF81830FFF7BDFE1420FDF7CBFB96
:10690000044648B1022303700123C0E901AA437081
:1069100031460C30FFF7AEFE2846214640F8044BC6
:10692000FFF732FF3046FFF7B2FE05A8FFF7AFFED4
:1069300028460AB0BDE8F0870C234FF0000A142067
:10694000CDE908AA0793FDF7A6FB014628B1C0E9E7
:1069500001AA80F800A080F801A004A80391FFF725
:1069600013FF224B08930820FDF795FB824628B1C0
:10697000039B40F8043B04A9FFF705FB00965FFA70
:1069800089F3424639462046CDF824A0FEF750FF51
:10699000B8B9039B5B7803F0FF0293B94FF69C7381
:1069A00005A903A80592ADF81830FFF711FF05A857
:1069B000FFF76DFE05A80999FFF7A6FE06A8FDF7EB
:1069C00036FF039B059304A906A8FFF7DCFA059B95
:1069D000069A2B606A60002306A806930593FDF7CC
:1069E00026FF04A8FDF723FFA2E700BFB56A0D004C
:1069F000022AF8B5054607D0032A18D0012A01D18A
:106A00000B6803600020F8BD18200E68FDF743FBFB
:106A1000044650B13146FFF7CBFE3069B6F9147029
:106A200008B101F01FFB2061A7822C60EAE704682F
:106A3000002CE7D004F11000FFF729FE2046FFF7F5
:106A400099FA1821204600F0E4FCDBE738B5002372
:106A500083608B6804460D462BB102229847EB6891
:106A6000E360AB68A360204638BD022A70B50446D7
:106A700007D0032A12D0012A01D10B68036000203D
:106A800070BD14200E68FDF706FB054620B13146A7
:106A9000FFF7DCFF337C2B742560F0E70468002CE3
:106AA000EDD02046FFF766FA1421204600F0B1FC35
:106AB000E5E70000F0B589B004460D4601A811468F
:106AC000FFF722FEA4B124B21DB1284601F0CAFA94
:106AD000054601A803A90395ADF81040FFF778FE1D
:106AE00003A8FFF7D4FD02A8FDF7A1FE09B0F0BD91
:106AF000019D0123D5E84F2F002A03D1C5E8413F6E
:106B00000029F7D1EFD12B73BFF35B8F6B702B1D77
:106B1000BFF35B8F53E8006F43E80042002AF9D1CE
:106B2000BFF35B8F002EDED02046FEF7D3FD074675
:106B300060B105F10C013046FFF715FE3046FFF756
:106B400019FA1021304600F064FCCCE7314603A866
:106B5000FFF77CFF2B7B8DF81C301020FDF79BFA94
:106B60000546D0B187601420FDF795FA044678B148
:106B70008760014603A8FFF70DFA059BA268A36092
:106B8000069B0592E268E3609DF81C300692237430
:106B9000064BEB60064B2C60AB6003A8FFF7EAF9ED
:106BA000002229460348FEF79DFDC7E779670D00DF
:106BB0006B6A0D00596F0D00704710B5182104461F
:106BC00000F027FC204610BDF0B5037D062B8DB0EC
:106BD0000E4600F104074FF0000412D000F1080542
:106BE00015F8011D0A223046FFF73FFAAF42044470
:106BF00019D0002CF4D02E213046FFF71DFA0444A2
:106C0000EEE72F236A4639460A208DF80040FEF74A
:106C100039FC684601F043FA33680246DB6869468E
:106C200030469847044620460DB0F0BD10B5054BE0
:106C30000446112240F8043B002101F0E7F9204608
:106C400010BD00BF78840D000346074A10B543F815
:106C5000042B01F1100251F8044B43F8044B91420C
:106C6000F9D10A781A7010BD78840D0010B59DF81E
:106C7000084044EA032343EA024242EA0161042352
:106C80004160037510BD000013B5054B0360CB7860
:106C900000938B784A780978FFF7E8FF02B010BDBF
:106CA00078840D0041747047704708B50021007C5E
:106CB000FEF7D0FC40EAE07008BD08B50121007C79
:106CC000FEF7C8FC40EAE07008BD08B5007CFEF79E
:106CD000B9FC20EAE07008BD08B5007CFEF7AAFC0C
:106CE00020EAE07008BD13B50446007C0191FEF770
:106CF000A9FC0028019901DC607C20B1207CFEF712
:106D0000B1FC20EAE07002B010BD007CFEF7B2BC1E
:106D100010B51421044600F07CFB204610BD000095
:106D200010B54FF47A73044608460021C4E90113F4
:106D3000044B23600123207463741146FEF76AFC40
:106D4000204610BD8C840D00007C0022FEF76ABC3A
:106D500010B514220446002101F058F9204610BD58
:106D600010B5104C88B003A8FFF7F2FF2178BFF3ED
:106D70005B8F11F0010111D120460191FDF791F9CE
:106D8000019958B103AA0848FFF7CAFF2046FDF74A
:106D90008DF9064A0649044800F036FB024808B05F
:106DA00010BD00BF40E6032044E6032090E403202A
:106DB000A96C0D00002240681146FEF7D9BC0022E4
:106DC00040681146FEF7F4BC002240681146FEF709
:106DD000FFBC40680022FEF7F3BC4068002281F04F
:106DE0000101FEF7DDBC002340681A461946FEF794
:106DF000CFBC002340681A461946FEF7C1BC0022EA
:106E000040681146FEF7A4BC406800220221FEF74C
:106E1000A7BC002340681A46FEF792BC084B10B589
:106E2000282422461846002101F0F0F8054B048082
:106E30004FF0FF32426004225A60034A1A6010BDCC
:106E400060E6032058E60320BC840D0070474174BF
:106E5000704708B5007CFEF755FB20EAE07008BDDE
:106E600008B5007CFEF726FB20EAE07008BD08B5F7
:106E7000007CFEF72FFB40EAE07008BD08B5007CFF
:106E8000FEF720FB40EAE07008BD007CFEF72ABB5D
:106E900037B5457C04462DB1207C03B0BDE83040B9
:106EA000FEF700BB007C0191FEF72CFB0028019946
:106EB000F2DC284603B030BD10B51421044600F0C2
:106EC000A8FA204610BD000010B54FF0000C044693
:106ED000084611464FF47A72C4E901C2044A22609E
:106EE0000122207462741A46FEF7D4FA204610BDBF
:106EF000F8840D00007C0023FEF70CBB0022FFF796
:106F0000F9BF000013B50E4C2178BFF35B8F11F071
:106F1000010112D120460191FDF7C3F8019960B13A
:106F2000084A094B0948FFF7CFFF2046FDF7BEF896
:106F3000074A0849054800F067FA044802B010BD46
:106F400088E603208CE6032010E7032094E7032063
:106F500090E403204D6E0D0010B5836804460BB914
:106F600000F07FFAC3689847A3681BB1032221464B
:106F70002046984720461021BDE8104000F049BA4D
:106F80007047F8B5064615460C468F18BC4206D029
:106F9000336814F8011B9B6830469847F6E728468B
:106FA000F8BD007C0022FEF7D5BA007C0021FEF778
:106FB000D9BA007C0021FEF7DDBA007C0021FEF783
:106FC000E1BA007C0021FEF7E5BA10B514210446B1
:106FD00000F01FFA204610BD10B54FF47A73044636
:106FE00008460021C4E90113034B236020741146B5
:106FF000FEF7E0FA204610BD28850D000023007C36
:107000001A461946FEF78EBA7FB500221423CDE941
:107010000122ADF804300B788DF808304B680393EB
:10702000CB680493007C0B7A059301A9FEF7DAFA8A
:1070300007B05DF804FB7FB50023CDE901334A6852
:1070400003921423CA68ADF804300B7804920A7ACC
:107050000592007C8DF8083001AA1946FEF76AFAFD
:1070600007B05DF804FB007C0022FEF76BBA007CE1
:107070000021FEF797BA08B50021007CFEF7A2FABE
:10708000B0FA80F0400908BD08B50021007CFEF789
:10709000A1FAB0FA80F0400908BD002340681A4602
:1070A000FEF74EBB406800220221FEF759BB0022CA
:1070B00040681146FEF74CBB002240681146FEF7BF
:1070C00057BB002340681A461946FEF759BB0023F8
:1070D00040681A461946FEF75BBB40680021FEF780
:1070E0007FBB40680021FEF783BB4068002281F02F
:1070F0000101FEF755BB40680022FEF761BB00228C
:1071000040681146FEF764BB002240681146FEF756
:107110004FBB2DE9F043002495B016460D460746B7
:10712000FFF784FD214618220EA8009400F06EFFA0
:107130004023CDE90C3421466B460CAA3046FEF7BD
:1071400029F9044600284CD1024601216868FEF75F
:107150000FFB0221804622466868FEF709FB009E6D
:1071600081462146002E3CD000293AD17368022B7B
:1071700003D00A2B11D0F669F4E7B8F1000F0AD05A
:10718000716906A8043107ADFFF77EFD0FCD3C1DE8
:107190000FC42B6823704146EDE7B9F1000F01D110
:1071A0004946E8E77469102201A800F02FFF062382
:1071B0008DF8143001AD04F10803183418685968CB
:1071C0002A4603C20833A3421546F7D101A906A8EF
:1071D00007ADFFF739FD0FCD3C1D0FC42B682370A1
:1071E000DEE70098FEF7CEF8384615B0BDE8F0832C
:1071F000024B034A1A6000225A607047A8E7032036
:1072000050850D00232813B502D9002002B010BD0F
:10721000A0F10B03022B1AD8174C2178BFF35B8F18
:1072200011F001010BD120460191FCF73AFF0199C1
:1072300028B11248FEF71AFD2046FCF737FF0F4B26
:107240001878FEF7DFF90028DFD10120DEE70128FA
:1072500009D800F089F80021007CFEF7A3F980F03E
:107260000100C0B2D2E709380128EED8FFF74AFE84
:10727000007CFEF73FF9F2E7B0E70320B4E7032014
:10728000232838B504460D460AD8FF2908D0FFF751
:10729000B9FF28B129462046BDE83840FEF78AB834
:1072A00038BD38B504460D46FEF78CF8FF2810D0DF
:1072B000062804D84D2323FA00F0C30709D420463A
:1072C000FFF7A0FF28B129462046BDE83840FEF769
:1072D00081B838BD0D2810B504469CBF0E34A4B249
:1072E0002046FFF78FFF50B103212046FEF75AF8E2
:1072F000032804D12046BDE81040FEF773B80020F3
:1073000010BDFEF777B8000038B500232025438074
:10731000142304460380856005610649284600F071
:107320007CF804496060284600F077F8E060204669
:1073300038BD00BF84850D0038B50023202543806B
:10734000142304460380856005610649284600F041
:1073500064F804496060284600F05FF8E060204669
:1073600038BD00BF84850D0030B50F4D2978BFF3BF
:107370005B8F11F0010487B013D12846FCF791FE12
:1073800078B101A8FFF7C0FF01AA21460748FFF71F
:1073900023FE2846FCF78AFE054A0649034800F00A
:1073A00033F8024807B030BDC0E70320C8E7032028
:1073B00090E40320816F0D0010B50F4C2378BFF3CC
:1073C0005B8FDB0786B013D42046FCF76AFE78B1EA
:1073D00001A8FFF7B1FF01AA01210848FFF7FCFD52
:1073E0002046FCF763FE064A0649044800F00CF804
:1073F000024806B010BD00BFC4E70320DCE703204D
:1074000090E40320816F0D000B460146184600F002
:10741000C7BDFCF744BEFCF73EBEFCF73EBE08B558
:10742000FEF756FA08B5FEF753FA0FB480B584B0EC
:1074300000AF07F1180454F8042B7A60104600F0EE
:107440002EFE00F2072323F00703ADEB030D00F53A
:1074500000717A68FC602346684600F057F8FEF732
:1074600037FA08B5FEF734FA80B59CB0064600AF8F
:107470000C46A41B0E496922381D00F09FFD04F143
:10748000700323F00703ADEB030D6D466822391D31
:10749000284600F093FD2246314605F168002C4451
:1074A00000F08CFD002384F868302846FFF7B7FF12
:1074B00085850D002DE9F04100AF84B06D4605F1E2
:1074C0000C04DFF8448023464FF00A0CB2FBFCF6B4
:1074D0000CFB162E18F80EE003F801ED9646BEF1EF
:1074E000090F3246F2D8E41A8C4209D8C4F10C01D3
:1074F0002246294400F062FD2046BD46BDE8F081E9
:107500004FF0FF34F8E700BFEE850D0001392DE99B
:10751000F0410746154600EB010804462A7862B39D
:1075200044452ED2252A07D16A78732A09D07A2AAF
:1075300012D0252A00D1013515F8012B04F8012BB2
:10754000ECE753F8042B013A12F8011FE9B1444566
:1075500017D004F8011BF7E7AA78752AECD11E466C
:10756000A8EB040156F8042B2046FFF7A3FF0028E0
:1075700007DD044403353346D0E72270E01BBDE845
:10758000F08121463846FFF76FFF0235C6E700005D
:1075900081F0004102E000BF83F0004330B54FEAC4
:1075A00041044FEA430594EA050F08BF90EA020F31
:1075B0001FBF54EA000C55EA020C7FEA645C7FEAC4
:1075C000655C00F0E2804FEA5454D4EB5555B8BFE7
:1075D0006D420CDD2C4480EA020281EA030382EA58
:1075E000000083EA010180EA020281EA0303362DEA
:1075F00088BF30BD11F0004F4FEA01314FF4801CBD
:107600004CEA113102D0404261EB410113F0004FCE
:107610004FEA03334CEA133302D0524263EB430385
:1076200094EA050F00F0A780A4F10104D5F1200E23
:107630000DDB02FA0EFC22FA05F2801841F100017E
:1076400003FA0EF2801843FA05F359410EE0A5F152
:1076500020050EF1200E012A03FA0EFC28BF4CF083
:10766000020C43FA05F3C01851EBE37101F0004539
:1076700007D54FF0000EDCF1000C7EEB00006EEB46
:107680000101B1F5801F1BD3B1F5001F0CD34908D0
:107690005FEA30004FEA3C0C04F101044FEA445227
:1076A00012F5800F80F09A80BCF1004F08BF5FEAAE
:1076B000500C50F1000041EB045141EA050130BD8E
:1076C0005FEA4C0C404141EB0101013C28BFB1F5A0
:1076D000801FE9D291F0000F04BF01460020B1FAEB
:1076E00081F308BF2033A3F10B03B3F120020CDABE
:1076F0000C3208DD02F1140CC2F10C0201FA0CF09C
:1077000021FA02F10CE002F11402D8BFC2F1200C00
:1077100001FA02F120FA0CFCDCBF41EA0C019040B6
:10772000E41AA2BF01EB0451294330BD6FEA0404FF
:107730001F3C1CDA0C340EDC04F11404C4F12002EA
:1077400020FA04F001FA02F340EA030021FA04F3FC
:1077500045EA030130BDC4F10C04C4F1200220FA53
:1077600002F001FA04F340EA0300294630BD21FA91
:1077700004F0294630BD94F0000F83F4801306BF57
:1077800081F480110134013D4EE77FEA645C18BF4B
:107790007FEA655C29D094EA050F08BF90EA020FE2
:1077A00005D054EA000C04BF1946104630BD91EADA
:1077B000030F1EBF0021002030BD5FEA545C05D1DD
:1077C0004000494128BF41F0004130BD14F580041C
:1077D0003CBF01F5801130BD01F0004545F0FE4190
:1077E00041F470014FF0000030BD7FEA645C1ABFC5
:1077F000194610467FEA655C1CBF0B46024650EAFC
:10780000013406BF52EA033591EA030F41F4002127
:1078100030BD00BF90F0000F04BF0021704730B5AD
:107820004FF4806404F132044FF000054FF0000182
:1078300050E700BF90F0000F04BF0021704730B543
:107840004FF4806404F1320410F0004548BF404218
:107850004FF000013EE700BF42004FEAE2014FEA6D
:1078600031014FEA02701FBF12F07F4393F07F4F48
:1078700081F06051704732F07F4208BF704793F04B
:107880007F4F04BF41F40021704730B54FF460745E
:1078900001F0004521F000411CE700BF50EA010261
:1078A00008BF704730B54FF000050AE050EA01020A
:1078B00008BF704730B511F0004502D5404261EB7A
:1078C00041014FF4806404F132045FEA915C3FF4BB
:1078D000D8AE4FF003025FEADC0C18BF03325FEA58
:1078E000DC0C18BF033202EBDC02C2F1200300FA09
:1078F00003FC20FA02F001FA03FE40EA0E0021FA2E
:1079000002F11444BDE600BF70B54FF0FF0C4CF41B
:10791000E06C1CEA11541DBF1CEA135594EA0C0FCD
:1079200095EA0C0F00F0DEF82C4481EA030621EA08
:107930004C5123EA4C5350EA013518BF52EA033543
:1079400041F4801143F4801338D0A0FB02CE4FF0F5
:107950000005E1FB02E506F00042E0FB03E54FF025
:107960000006E1FB03569CF0000F18BF4EF0010E1D
:10797000A4F1FF04B6F5007F64F5407404D25FEA19
:107980004E0E6D4146EB060642EAC62141EA5551CC
:107990004FEAC52040EA5E504FEACE2EB4F1FD0C0E
:1079A00088BFBCF5E06F1ED8BEF1004F08BF5FEA8C
:1079B000500E50F1000041EB045170BD06F000463E
:1079C00046EA010140EA020081EA0301B4EB5C04EB
:1079D000C2BFD4EB0C0541EA045170BD41F48011E3
:1079E0004FF0000E013C00F3AB8014F1360FDEBF08
:1079F000002001F0004170BDC4F10004203C35DAE4
:107A00000C341BDC04F11404C4F1200500FA05F366
:107A100020FA04F001FA05F240EA020001F0004207
:107A200021F0004110EBD37021FA04F642EB06017D
:107A30005EEA430E08BF20EAD37070BDC4F10C04A7
:107A4000C4F1200500FA04F320FA05F001FA04F26B
:107A500040EA020001F0004110EBD37041F1000157
:107A60005EEA430E08BF20EAD37070BDC4F1200562
:107A700000FA05F24EEA020E20FA04F301FA05F2CA
:107A800043EA020321FA04F001F0004121FA04F272
:107A900020EA020000EBD3705EEA430E08BF20EA42
:107AA000D37070BD94F0000F0FD101F0004640007C
:107AB00041EB010111F4801F08BF013CF7D041EAFE
:107AC000060195F0000F18BF704703F00046520002
:107AD00043EB030313F4801F08BF013DF7D043EAD3
:107AE0000603704794EA0C0F0CEA135518BF95EA89
:107AF0000C0F0CD050EA410618BF52EA4306D1D110
:107B000081EA030101F000414FF0000070BD50EA2E
:107B1000410606BF1046194652EA430619D094EAB8
:107B20000C0F02D150EA013613D195EA0C0F05D1A2
:107B300052EA03361CBF104619460AD181EA0301F6
:107B400001F0004141F0FE4141F470014FF00000AE
:107B500070BD41F0FE4141F4780170BD70B54FF049
:107B6000FF0C4CF4E06C1CEA11541DBF1CEA1355C9
:107B700094EA0C0F95EA0C0F00F0A7F8A4EB0504AB
:107B800081EA030E52EA03354FEA013100F08880A2
:107B90004FEA03334FF0805545EA131343EA12636B
:107BA0004FEA022245EA111545EA10654FEA002620
:107BB0000EF000419D4208BF964244F1FD0404F5D9
:107BC000407402D25B084FEA3202B61A65EB030535
:107BD0005B084FEA32024FF480104FF4002CB6EBF2
:107BE000020E75EB030E22BFB61A754640EA0C0072
:107BF0005B084FEA3202B6EB020E75EB030E22BFB2
:107C0000B61A754640EA5C005B084FEA3202B6EBF2
:107C1000020E75EB030E22BFB61A754640EA9C00B1
:107C20005B084FEA3202B6EB020E75EB030E22BF81
:107C3000B61A754640EADC0055EA060E18D04FEA3F
:107C4000051545EA16754FEA06164FEAC30343EADF
:107C500052734FEAC2025FEA1C1CC0D111F4801FAC
:107C60000BD141EA00014FF000004FF0004CB6E7A5
:107C700011F4801F04BF01430020B4F1FD0C88BF44
:107C8000BCF5E06F3FF6AFAEB5EB030C04BFB6EB4F
:107C9000020C5FEA500C50F1000041EB045170BD42
:107CA0000EF0004E4EEA113114EB5C04C2BFD4EB6F
:107CB0000C0541EA045170BD41F480114FF0000EF3
:107CC000013C90E645EA060E8DE60CEA135594EA6F
:107CD0000C0F08BF95EA0C0F3FF43BAF94EA0C0F72
:107CE0000AD150EA01347FF434AF95EA0C0F7FF4E7
:107CF00025AF104619462CE795EA0C0F06D152EA3B
:107D000003353FF4FDAE1046194622E750EA41061E
:107D100018BF52EA43067FF4C5AE50EA41047FF42F
:107D20000DAF52EA43057FF4EBAE12E74FF0FF3C94
:107D300006E000BF4FF0010C02E000BF4FF0010C65
:107D40004DF804CD4FEA410C7FEA6C5C4FEA430CDE
:107D500018BF7FEA6C5C1BD001B050EA410C0CBF2D
:107D600052EA430C91EA030F02BF90EA020F00208F
:107D7000704710F1000F91EA030F58BF994208BFF6
:107D800090422CBFD8176FEAE37040F001007047B3
:107D90004FEA410C7FEA6C5C02D150EA013C07D10A
:107DA0004FEA430C7FEA6C5CD6D152EA033CD3D055
:107DB0005DF8040B704700BF8446104662468C464F
:107DC0001946634600E000BF01B5FFF7B7FF002882
:107DD00048BF10F1000F01BD4DF808EDFFF7F4FFAB
:107DE0000CBF012000205DF808FB00BF4DF808ED36
:107DF000FFF7EAFF34BF012000205DF808FB00BF59
:107E00004DF808EDFFF7E0FF94BF012000205DF87A
:107E100008FB00BF4DF808EDFFF7CEFF94BF01202F
:107E200000205DF808FB00BF4DF808EDFFF7C4FF28
:107E300034BF012000205DF808FB00BF4FEA410C71
:107E40007FEA6C5C02D150EA013C0AD14FEA430C54
:107E50007FEA6C5C02D152EA033C02D14FF0000091
:107E600070474FF0010070474FEA410212F50012CF
:107E700015D211D56FF47873B3EB625212D94FEA71
:107E8000C12343F0004343EA505311F0004F23FA5B
:107E900002F018BF404270474FF00000704750EAB0
:107EA000013005D111F0004008BF6FF0004070476D
:107EB0004FF00000704700BF4A0011D212F50012C7
:107EC00011D20DD56FF47873B3EB62520ED44FEA32
:107ED000C12343F0004343EA505323FA02F07047B2
:107EE0004FF00000704750EA013002D14FF0FF30F0
:107EF00070474FF0000070474FEA4102B2F1E04393
:107F000024BFB3F5001CDCF1FE5C0DD901F0004C80
:107F10004FEAC0024CEA5070B2F1004F40EB8300D0
:107F200008BF20F00100704711F0804F21D113F1FC
:107F30003872BCBF01F00040704741F480114FEA35
:107F40005252C2F11802C2F1200C10FA0CF320FABE
:107F500002F018BF40F001004FEAC1234FEAD323DB
:107F600003FA0CFC40EA0C0023FA02F34FEA430345
:107F7000CCE77FEA625307D150EA01331EBF4FF0CE
:107F8000FE4040F44000704701F0004040F0FE40E9
:107F900040F40000704700BF0A22002100F014B92D
:107FA00010B5054C13462CB10A4601460220AFF32A
:107FB000008010BD2046FCE7000000000A4491420A
:107FC00000F1FF3300D1704710B511F8014B03F8F1
:107FD000014F9142F9D110BD884210B501EB020466
:107FE00002D98442234607D8431EA14208D011F883
:107FF000012B03F8012FF8E7024401468A4200D121
:1080000010BD13F8014D02F8014DF7E70244034695
:10801000934200D1704703F8011BF9E738B50D4BC7
:108020001D68AB6B04467BB91820FDF731FC0A4A8A
:108030000A4BA863C0E90023094B83600B238381AB
:1080400001220023C0E90423AB6B00221C615A61AA
:1080500038BD00BF2CE403200E33CDAB34126DE6E7
:10806000ECDE0500024B0146186800F003B800BFC3
:108070002CE4032037B5044608460D4600F00FF8FF
:10808000421C114620460192FDF72AFC044618B115
:10809000019A2946FFF792FF204603B030BD034600
:1080A00013F8012B002AFBD1181A0138704710B5BC
:1080B0000139034632B111F8014F03F8014B013A7F
:1080C000002CF7D11A440021934200D110BD03F8CF
:1080D000011BF9E72DE9F0473A4E86468C4660468B
:1080E0001CF8014BA55D15F00805F8D12D2C33D1F6
:1080F0009CF800404FF0010800F1020C002B5CD00E
:10810000102B0CD1302C0AD19CF8000000F0DF00BD
:1081100058284DD19CF8014010230CF1020C08F1B5
:108120000047013F0026B7FBF3F9304603FB197AFD
:10813000A4F13005092D18D82C46A34224DD751C66
:1081400007D081451DD301D1A2451ADB00FB0340B6
:1081500001261CF8014BEBE72B2C08BF9CF80040D4
:10816000A84608BF00F1020CC8E7A4F14105192D8B
:1081700001D8373CE1E7A4F16105192D04D8573C3B
:10818000DBE74FF0FF36E4E7731C06D12223CEF87D
:108190000030384642B9BDE8F087B8F1000F00D092
:1081A0004042002AF7D00EB10CF1FF311160F2E726
:1081B0003024002BB3D10823B1E7302CA4D00A23FC
:1081C000ADE700BFFA850D0013460A460146024896
:1081D0000068FFF77FBF00BF2CE4032021400D00A3
:1081E0005D400D0085400D0089400D00000000003D
:1081F0000000000000000000B5400D00D5400D005B
:10820000636D00636F6E76203D2000616E56203DE9
:1082100020006D56203D200074656D702043203D88
:10822000200074656D702066203D2000416E616CF9
:108230006F6720496E203A2000416E616C6F6720A5
:10824000496E20617667643A200053657269616CFB
:10825000204F7574707574203A20007B2022776C53
:1082600031223A2025302E35662C2022776C32229E
:108270003A2025302E35662C2022776C33223A2086
:1082800025302E32662C202274656D70223A20250E
:10829000302E32662C202262223A2025302E326681
:1082A0007D00766563746F723A3A5F4D5F72616EFE
:1082B00067655F636865636B3A205F5F6E20287750
:1082C0006869636820697320257A7529203E3D20FE
:1082D000746869732D3E73697A6528292028776848
:1082E00069636820697320257A752900766563744F
:1082F0006F723A3A5F4D5F7265616C6C6F635F6974
:108300006E736572740064617461203D2000446185
:108310007461204176673A20005465737400636885
:10832000617267696E67004661756C74004D6169C2
:108330006E7461696E6365204D6F6465207374614E
:108340007274656420666F7220257300616C6572BB
:108350007473005472696D6D696E67004469646E70
:1083600074207472696D6D3100486F706577656C4B
:108370006C52645F426F726F6E000000000000007C
:108380000000000045420D0099510D005D420D00B6
:1083900063420D00000000000000000069420D0073
:1083A0008F420D000000000000000000B5420D00EB
:1083B00099510D006B420D0063420D00000000005A
:1083C000000000004D5C0D00435C0D00395C0D00A9
:1083D0002F5C0D00235C0D00175C0D00DB700D00A1
:1083E000E3700D000B5C0D00035C0D00F95B0D00EC
:1083F000EF5B0D0013710D00776972696E670053B2
:10840000797374656D20736C65657020636F6E663B
:10841000696775726174696F6E20697320696E7621
:10842000616C69642E006E616E00696E66006F7625
:1084300066006170700025592D256D2D2564542529
:10844000483A254D3A2553257A0061736374696D66
:1084500065000000000000000000000059660D00EB
:108460005F660D009D660D006D660D005B660D007C
:108470000000000000000000C96B0D00B96B0D008A
:10848000BB6B0D000000000000000000A96C0D0097
:10849000116D0D00E76C0D00E15F0D00D96C0D0052
:1084A000AB6C0D00BB6C0D000B6D0D00CB6C0D00AB
:1084B000A56C0D000000000000000000136E0D0010
:1084C000096E0D00FF6D0D00B56D0D00F36D0D0013
:1084D000E76D0D00DB700D00E3700D00DB6D0D002E
:1084E000D36D0D00C96D0D00BF6D0D0013710D0032
:1084F00000000000000000004D6E0D00B96E0D0080
:10850000916E0D00E15F0D00616E0D007D6E0D003E
:108510006F6E0D008B6E0D004F6E0D00536E0D00D3
:108520000000000000000000816F0D00CB6F0D0007
:10853000A36F0D00836F0D00AB6F0D00B36F0D00C7
:10854000BB6F0D00C36F0D000000000000000000B5
:108550009B700D00A5700D00AF700D00B9700D007F
:10856000C3700D00CF700D00DB700D00E3700D00C7
:10857000EB700D00F7700D00FF700D0009710D001C
:1085800013710D00006E6F7420656E6F7567682043
:10859000737061636520666F7220666F726D6174BF
:1085A00020657870616E73696F6E2028506C65610C
:1085B0007365207375626D69742066756C6C2062DA
:1085C0007567207265706F727420617420687474AE
:1085D00070733A2F2F6763632E676E752E6F726705
:1085E0002F627567732F293A0A202020200030312E
:1085F000323334353637383900002020202020200F
:108600002020202828282828202020202020202042
:108610002020202020202020202088101010101042
:108620001010101010101010101004040404040492
:108630000404040410101010101010414141414175
:1086400041010101010101010101010101010101DA
:10865000010101010110101010101042424242426B
:1086600042020202020202020202020202020202AA
:108670000202020202101010102000000000000090
:1086800000000000000000000000000000000000EA
:1086900000000000000000000000000000000000DA
:1086A00000000000000000000000000000000000CA
:1086B00000000000000000000000000000000000BA
:1086C00000000000000000000000000000000000AA
:1086D000000000000000000000000000000000009A
:1086E000000000000000000000000000000000008A
:1086F00000000000000000000000000059520D00C2
:10870000595C0D00B55D0D00B95F0D00B9620D003B
:10871000D9630D0001640D001D6E0D00F1710D0097
:048720000000000055
:108724004A840D0030E40320000000000000000033
:108734000000000000000000000000000000000035
:108744000000000000000000000000000000000025
:108754000000000000000000000000000000000015
:108764000000000000000000000000000000000005
:1087740000000000000000000000000000000000F5
:088784000000000000000000ED
:10878C00FFFFFFFF00000102030405060708090AAA
:10879C000B0C0D0E0F101112131415161718191AA5
:0887AC001B1C1D1E1F202800EC
:0487B40078563412AD
:04000003D0004020C9
:00000001FF
