:02000002D0002C
:1040000000400D00CC980D00000006000D000501D9
:08401000040179050000000025
:0440180000900D0007
:1040200009480A49884208B505D0094A824202D0A7
:10403000121A04F007FB0748074A0021121A04F07D
:1040400027FB014808BD00BF54E10320E8970D009D
:1040500010E2032010E20320F0E7032070B502F025
:10406000BBF9074C074BE41AA40800251E46A542DD
:1040700004D056F8253098470135F8E770BD00BFE9
:10408000DC970D009C970D0000F00CBD08B500F00A
:104090006BFFBDE8084002F06DB901F087BB01F08D
:1040A00085BB01F08BBB01F089BB0078B0FA80F0D2
:1040B00040097047012303707047000010B5064B9C
:1040C000036004460021808803F032F804F11000F8
:1040D00001F0A4FD204610BD1C900D0010B5044653
:1040E000FFF7ECFF20462C2103F0CDF8204610BD51
:1040F00038B5044619486173012584E8090004991C
:10410000A260257304F1100001F0F1FD144B617BF6
:104110002362144B6362A9424FF48063A3620AD006
:1041200002D302290BD016E02946A08803F000F83C
:104130000021208900E0A08802F0FAFF0BE060680F
:104140002573431C07D0294680B202F0F1FF2946AF
:10415000A08802F0FEFF204638BD00BF1C900D0075
:104160000000FA433333534010B50446008903F08E
:1041700009F807EE900A94ED090AF8EEE77A67EE7F
:10418000807A94ED0A0AB8EE400A87EE800A10BDE4
:1041900038B5457B012D044603D017D3022D1FD01F
:1041A00038BD2946808802F0C3FF2946A08802F066
:1041B000D0FF0A2001F0CCF8A088002102F0C9FF4E
:1041C000A0880021BDE8384002F0B2BF01218088FC
:1041D00002F0BFFF0A2001F0BBF80021A08804E034
:1041E0004068431C05D0012180B2BDE8384002F090
:1041F000B0BF38BD10B50446FFF7CAFF20890121C2
:10420000BDE8104002F0D5BF10B5437B012B04463A
:1042100006D9022B13D1FFF7A7FFD4ED087A0BE0E4
:10422000FFF7E8FF07EE900A9FED060AF8EE677ABF
:1042300027EE800AF6EE007A20EE270A10BD9FEDE9
:10424000020A10BD287E0C3D0000000001F030B8CD
:1042500003799FED040A002BFFEE007A08BFB0EE51
:10426000670A7047000000000123037170470023B4
:1042700003717047704738B5046960680125431CB5
:10428000257309D0294680B202F052FF2946A08842
:10429000BDE8384002F05DBF38BD10B510210446BE
:1042A00002F0F1FF204610BD0069FFF7ADBF08B175
:1042B000FFF7F7BE704710B504460068FFF7F7FF39
:1042C000204610BD70B590E850000546A64208D0C3
:1042D00004F11C0001F0A2FC204601F09FFC2C34EC
:1042E000F4E72868FFF7E3FF284670BD70B590E853
:1042F00060000446AE4204D0284601F08FFC103521
:10430000F8E72068FFF7D3FF204670BD2DE9F041A4
:104310008AB0044606AD02A81746984601F0E7FCAD
:104320002249284601F0C1FC0498214B2360023049
:10433000FFF7B5FE049AA06001460023013202A8EF
:1043400001F0E0FCA268049B134400265E7008980C
:104350000230FFF7A4FE089AE060014633460132BE
:10436000284601F0CFFCE268089B134428465E70A3
:1043700001F054FC02A801F051FC0E4B23600E49E1
:10438000284601F092FC2C20FFF787FE064628B154
:10439000009543463A460221FFF7AAFE26612846C9
:1043A00001F03CFC20460AB0BDE8F08164900D00AD
:1043B0002C900D0054900D00FD920D0000000000A7
:1043C00070B511202DED028B02F0DCFE044603F0E7
:1043D000F5FA39A3D3E9002303F056FB03F04CFEB2
:1043E00008EE100A02F0AAFB374901F001FD02F0C5
:1043F000A5FB9FED310B022101F02EFE02F09EFB8A
:10440000324901F0F5FC02F099FB0A22214601F045
:1044100067FD02F093FB2E4901F0EAFC02F08EFBEF
:10442000044618EE100A03F0DBFA41EC100B0221EF
:10443000204601F011FE02F081FB264901F0D8FC74
:1044400002F07CFBDFED247A38EE678AF2EE047A24
:1044500088EE277A064617EE100A03F0C1FA0446E2
:104460000D4645EC104B0221304601F0F5FD14A33A
:10447000D3E900232046294603F006FB0022174B10
:1044800003F050F903F0F8FD044602F057FB14491D
:1044900001F0AEFC02F052FB0546204603F0A0FA04
:1044A00041EC100B0221284601F0D6FDBDEC028B39
:1044B00000EE104A70BD00BF0000000000C8E93FD8
:1044C000CDCCCCCCCCCCFC3FB2900D00BA900D0042
:1044D000C1900D00C7900D000000FA43000040405D
:1044E000D1900D000000000070B512202DED028B60
:1044F00002F048FE042490FBF4F007EE900AF8EE78
:10450000E77A9FED2D8A17EE900A03F069FA28A347
:10451000D3E9002303F0B8FA03F0AEFD064602F03B
:104520000DFB264901F064FC02F008FB054630460D
:1045300003F056FA41EC100B2846022101F08CFDE5
:104540000A25122002F01EFE90FBF4F007EE900AFE
:10455000F8EEE77A642038EE278A01F04BFE013D41
:10456000EFD102F0EBFA164901F042FC02F0E6FA54
:10457000F2EE047A88EE277A044617EE100A03F06A
:104580002FFA0BA3D3E9002303F07EFA03F074FDA6
:1045900003F026FA41EC100B0221204601F05CFDED
:1045A000BDEC028B00EE106A70BD00BFAFF300805F
:1045B0007FC2D9AD6532D93F00000000DB900D000D
:1045C000E8900D000000000070B512202DED028B68
:1045D00002F0D8FD054602F0B1FA2F499FED2F8A6F
:1045E00001F006FC02F0AAFA0424064695FBF4F05A
:1045F00007EE900AF8EEE77A142517EE900A03F01A
:10460000EFF923A3D3E9002303F03EFA03F034FDCE
:1046100003F0E6F941EC100B0221304601F01CFDDD
:10462000122002F0AFFD90FBF4F007EE900AF8EED6
:10463000E77A642038EE278A01F0DCFD013DEFD1F6
:10464000F3EE047A88EE277A17EE100A03F0C8F921
:104650000FA3D3E9002303F017FA03F00DFD04467E
:1046600002F06CFA0E4901F0C3FB02F067FA05464E
:10467000204603F0B5F941EC100B0221284601F069
:10468000EBFCBDEC028B00EE104A70BDAFF3008076
:104690007FC2D9AD6532D93FDB900D00000000002C
:1046A000E8900D000000000070B52DED028B384C35
:1046B0009FED388A82B02646002502F013FB03687E
:1046C0001B699847002838D002F00CFB03689B69EF
:1046D000984752282BD1236813B900F041FE20607F
:1046E00002F000FB03681B699847042812DD00955F
:1046F000CDF8035002F0F6FA0622694601F0CCFC30
:104700000DF1010003F094FE07EE900A3560B8EE5B
:10471000E78AD2E700F024FE3368C01A3228CCD9E9
:1047200002F0E0FA03685B6998472560C5E702F08C
:10473000D9FA03685B699847BFE702F0FFF91649A9
:1047400001F056FB02F0FAF9064618EE100A03F0E3
:1047500047F90DA3D3E9002303F096F900220F4B8C
:1047600003F0BCFA04460D4645EC104B02213046DE
:1047700001F072FC2046294603F07EFC00EE100A90
:1047800002B0BDEC028B70BD7FC2D9AD6532D93F9E
:1047900018E2032000000000F9900D000000244002
:1047A00010B501F013FDC0F13C0401F005FD002837
:1047B00003DB01F001FD0F280CDD01F0FDFC0F28EB
:1047C0000DDD01F0F9FC1E2809DC01F0F5FCC0F15B
:1047D0001E001FE001F0F0FCC0F10F001AE001F034
:1047E000EBFC1E2808DD01F0E7FC2D2804DC01F0BD
:1047F000E3FCC0F12D000DE001F0DEFC2D2808DD0A
:1048000001F0DAFC3C2804DC01F0D6FCC0F13C00ED
:1048100000E000203C2303FB004010BD38B50468D5
:1048200005467CB16368013B63605BB92368204641
:104830009B689847A368013BA3601BB92368204687
:10484000DB689847284638BD2DE9F843436804687B
:104850001C1B241114BF23460123E41805460F46F0
:1048600002D2B4F1805F2ED36FF070442001FFF7C5
:1048700014FC064695E80900181A301802D039468B
:1048800001F035FA95E880023046B94500F110088C
:1048900006D010B1394601F02AFA10374046F4E745
:1048A00095E88002B94504D0384601F0B7F91037D1
:1048B000F8E72868FFF7FBFC85E8400106EB0414E5
:1048C000AC60BDE8F883002CD0D12646D2E70000CA
:1048D00010B501460848426883689A42044607D0EA
:1048E00012B1104601F003FA63681033636010BD23
:1048F000FFF7AAFF10BD00BFECE203202DE9F8434B
:10490000046843681B1B1C4C9B105C4314BF23466C
:104910000123E31806468846184C01D2A34225D944
:104920000C206043FFF7B9FB0746D6F80090756886
:10493000C9EB05057B191CBF98E8070083E8070051
:104940000D4AAB105A4304D02A464946384603F074
:1049500084FE4846FFF7ABFC0C350C233D4403FBBB
:10496000047437607560B460BDE8F8831C46002BA2
:10497000D6D11F46D9E700BFABAAAAAA55555515EF
:1049800008B590E80C009B1A044A9B105A439142C8
:1049900002D3034802F07CFC08BD00BFABAAAAAA60
:1049A0000A910D000000000030B52DED028B384853
:1049B000384A046843681B1B9B105A4383B05AD083
:1049C0000021FFF7DDFF24689FED338A01F0E2FB51
:1049D000236820461B6898478DED010A02F0AEF867
:1049E0002E4901F005FA02F0A9F89DED010A0546ED
:1049F00010EE100A02F0F4FF23A3D3E9002303F022
:104A000043F803F039FB02F0EBFF41EC100B2846B2
:104A1000022101F021FB1425236820461B689847DA
:104A2000642038EE008A01F0E5FB013DF4D1F3EE9D
:104A3000047A88EE277A17EE100A02F0D1FF12A34B
:104A4000D3E9002303F020F803F016FB044602F03C
:104A500075F8134901F0CCF902F070F805462046CC
:104A600002F0BEFF41EC100B0221284601F0F4FADF
:104A700000EE104A01E09FED080A03B0BDEC028B86
:104A800030BD00BFAFF300807FC2D9AD6532D93FE2
:104A90001CE30320ABAAAAAA0000000054910D0059
:104AA0005C910D002DE9F0418CB002F047F84FF415
:104AB000165102F037F802F015F94FF4165102F0D2
:104AC0000BF900230822089318460124ADF8202092
:104AD00047F2305108AA099400F058FE21460320FD
:104AE00002F026FB344908A801F001F91420FFF771
:104AF000D4FA044628B14FF0FF33122208A9FFF779
:104B000005FC08A801F08AF823692C4A5A62236937
:104B10002B4A1A622369059440F6FF729A62294C67
:104B20000A23069364230793A2686368934208D01C
:104B30001BB105AA07CA83E8070063680C336360EA
:104B400003E005A92046FFF7D9FEDFF880800025A5
:104B50000C27266863689B1B9B1008FB03F39D4290
:104B600012D229461748FFF70BFF07FB05F308A8E9
:104B7000F358996801F099F808A8FFF7A9FE08A86A
:104B800001F04CF80135E4E70F4800F047FE002241
:104B9000114602920192009201230B4800F064FF3B
:104BA00041F2E821084800F0BEFE074800F045FF4A
:104BB0000CB0BDE8F08100BFF8E20320333353406E
:104BC000666698431CE3032014E20320ABAAAAAA5A
:104BD00010B51348134A046843681B1B9B105A43C3
:104BE00015D00021FFF7CCFE246801F0D3FA23682A
:104BF00020461B68984710EE100A02F0F1FE06A34B
:104C0000D3E9002302F040FF03F036FA00E0002071
:104C100000EE100A10BD00BF7FC2D9AD6532D93F8A
:104C20001CE30320ABAAAAAA10B501238B4215DA14
:104C300000EB83021C46002C0EDDD2ED007A32ED33
:104C4000017AF4EEC77AF1EE10FA05D582ED017A19
:104C5000C2ED007A013CEEE70133E7E710BD00004A
:104C600010B5084A043001238B4205DA50F8044B92
:104C700042F8044B0133F7E70348FFF7D5FF02483A
:104C800010BD00BF20E203201CE203200000000052
:104C9000F8B52DED028B0F680D4639460646FFF735
:104CA000DFFF022497FBF4F400EB840494ED007A18
:104CB0000346002297420EDDF3EC017A77EEC77AC5
:104CC0000132F5EEC07AF1EE10FA48BFF1EE677AE4
:104CD00043ED017AEEE73946FFF7A6FF94ED008A2F
:104CE000B5EEC08AF1EE10FA4CBFF1EE487AF0EE64
:104CF000487A17EE900A02F073FE23A3D3E900234B
:104D000003F034F92C68DFED1E7A00282146304686
:104D100018BFB0EE678AFFF7A3FF022394FBF3F4FA
:104D200000EB84000023D0ED006A164932461C4691
:104D3000B0EE0C6A2868984218D9B2EC017A77EE86
:104D4000665A0133C5EE887AF5EEC07AF1EE10FAB4
:104D500048BFF1EE677AF4EEC67AF1EE10FA42BF80
:104D600001EB840080ED007A0134E3E7A2000549FD
:104D7000304603F067FCBDEC028B2C60F8BD00BF31
:104D8000CDCCCC3D1CE203209A9999999999B93FD1
:104D90002DE9FF411F46037905460E469046002B3C
:104DA00043D00298264B0093B0F1FE5F94BF800081
:104DB0004FF0FF30FFF773F900240190029603943F
:104DC000A64214DD2B6828461B689847039A029B6D
:104DD0009A4207D2019B03EB820383ED000A039BF7
:104DE00001330393404601F005FA0134E8E747B187
:104DF00001F0A4FE134901F00EF803A90198FFF792
:104E000047FF039B01999FED107A0022934205DD35
:104E1000F1EC017A013237EE277AF7E707EE903AA4
:104E2000F8EEE77A87EE270A06E001F087FE0749E9
:104E300000F0F1FFBFEE000A04B0BDE8F08100BF52
:104E400044900D0067910D000000000070910D006E
:104E500070B5064600200C4600F0DAFB08B90020C9
:104E600070BD002C03DD00F07BFA054600E0002554
:104E700073783BB9002C07DD00F072FA401BA042AA
:104E800002D3ECE7012070BD00F048FCF0E7000021
:104E900030B5314895B0CDED0D0ACDED0B1ACDED05
:104EA0000A2A8DED0C1A01F021FA9DED0C1A8DEDF8
:104EB000090A11EE100A02F093FD9DED090A04465D
:104EC00010EE100A0D4602F08BFDDDED0A2ACDE949
:104ED000060112EE900A02F083FDDDED0B1ACDE91A
:104EE000040111EE900A02F07BFDDDED0D0ACDE923
:104EF000020110EE900A02F073FD2246CDE9000196
:104F00002B46164910A800F015FF154B109A19688A
:104F1000144B1B788DF800300EA83C2301F0B8FB31
:104F20000E9C00212046FFF793FF6378BFF35F8F4D
:104F300033B100212046FFF78BFF2378012B01D0EE
:104F4000002400E0247B0FA8FFF768FC10A800F005
:104F500065FE204615B030BD28E303207D910D008D
:104F6000F8E2032008E3032030B52DED068B8BB06B
:104F700000F0DCFB00F0EAFB10B1002000F0F6FBD3
:104F800000F0EEF900210446032002F0E2F84FF4AD
:104F9000FA7001F02FF9FFF71BFEB0EE408AFFF721
:104FA00003FDF0EE408AFFF79FFAB0EE409AFFF75C
:104FB0000BFBF0EE409AFFF777FBB0EE40AAFFF74D
:104FC000FFF9F0EE40AA01F0B9FD0A22FF2100F03E
:104FD0005BFF654800F081FC054601F0AFFD6349C9
:104FE00000F019FF01F0AAFD0A22294600F04CFF4B
:104FF00001F0A4FD5E4900F00EFF4FF4FA7001F0DD
:10500000F9F80121032002F0A4F800F0A9F9001B2F
:1050100002F0C4FC52A3D3E9002302F05FFE002299
:10502000544B02F0A3FF30B100F090FB18B901F02F
:1050300090F80028E9D142F2107001F0DBF8002569
:1050400000F08EF9001B02F0A9FC45A3D3E9002370
:1050500002F044FE0022474B02F088FFC8B100F086
:1050600075FBB0B1ADB9F0EE6A2AB0EE4A2AF0EEA7
:10507000691AB0EE491AF0EE680AB0EE480AFFF776
:1050800007FF054601F05AFD0A22294600F028FFD5
:10509000D6E701F087F8112839D101F08DF80A28F8
:1050A00035DC00F05DF9344A3449054606A800F0C5
:1050B00041FE334B069A1B788DF8003004A83C2340
:1050C000304901F0E5FA05A8FFF7A8FB00F048F920
:1050D000401B02F063FC00222B4B02F0FFFD00227C
:1050E0002A4B02F043FF04460028EFD1FFF758FB9C
:1050F000274B28491B6802930190009404A8264B73
:10510000224600F059FD06A800F088FD21E000F0DD
:1051100015FB00F01BFB78B100F022F9001B02F038
:105120003DFC0FA3D3E9002302F0D8FD0022114B70
:1051300002F01CFF0028ECD1FFF732FB144B17499B
:105140001B680293002201900092154B06A800F004
:1051500033FD0BB0BDEC068B30BD00BFAFF300805C
:1051600000000000004CED4014E20320C4910D004B
:10517000CD910D0000000840F8E20320D3910D000E
:1051800008E30320F2910D0000408F4000C08240F0
:1051900018E3032064900D0064900D0064900D00EE
:1051A00064900D00294B70B500241C60284B294DDC
:1051B00001261E7000F07CF83146304600F0E8F819
:1051C0002548264904602A464460846002F056F867
:1051D000234B4FF6FF721C705C809A80022000F017
:1051E000FFF92146304600F00BFA1E481E490460C4
:1051F0002A464460846002F041F81C481C4E04605A
:105200002A46446084601B4902F038F82146304643
:1052100001F02CF83046184E18492A4602F02EF8B4
:105220001749304600F041FD3046164E16492A46D1
:1052300002F024F82146304600F007FB2A463046AB
:105240001249BDE8704002F019B800BF18E303200E
:1052500008E3032010E20320ECE20320ED420D00FE
:10526000E4E203201CE30320B7420D000CE303201B
:1052700028E30320C5420D00F8E203208B620D00F5
:10528000F9910D0014E203201D5C0D0069580D001A
:1052900008B5024B1B689B68019308BD68020300B8
:1052A00008B5024B1B68DB68019308BD6802030068
:1052B00008B5024B1B681B68019308BD2C02030054
:1052C00008B5024B1B685B68019308BD2C02030004
:1052D00008B5024B1B689B68019308BD2C020300B4
:1052E00008B5024B1B68DB68019308BD2C02030064
:1052F00008B5024B1B681B69019308BD2C02030013
:1053000008B5024B1B681B6B019308BD2C02030000
:1053100008B5024B1B68DB6C019308BD2C0203002F
:1053200008B5024B1B68DB69019308BD300203001E
:1053300008B5024B1B681B6A019308BD30020300CD
:1053400008B5024B1B685B68019308BD1802030097
:1053500008B5024B1B68DB68019308BD1802030007
:1053600008B5024B1B685B69019308BD1802030076
:1053700008B5024B1B68DB69019308BD18020300E6
:1053800008B5024B1B689B6D019308BD1802030012
:1053900008B5024B1B685B6E019308BD3402030025
:1053A00008B5024B1B689B68019308BD48020300C7
:1053B00008B5024B1B681B69019308BD4802030036
:1053C00008B5024B1B685B69019308BD48020300E6
:1053D00008B5024B1B681B6B019308BD4802030014
:1053E00008B5024B1B685B6C019308BD48020300C3
:1053F00008B5024B1B685B69019308BD640203009A
:1054000008B5024B1B681B68019308BD3C020300F2
:1054100008B5024B1B68DB68019308BD3C02030022
:1054200008B5024B1B681B69019308BD3C020300D1
:1054300008B5024B1B685B69019308BD3C02030081
:1054400008B5024B1B689B69019308BD3C02030031
:1054500008B5024B1B68DB69019308BD3C020300E1
:1054600008B5024B1B681B6A019308BD3C02030090
:1054700008B5024B1B689B6A019308BD3C02030000
:1054800008B5024B1B68DB6A019308BD3C020300B0
:1054900008B5024B1B68DB68019308BD28020300B6
:1054A00008B5024B1B685B69019308BD2802030025
:1054B00008B5024B1B689B69019308BD28020300D5
:1054C00008B5024B1B68DB69019308BD2802030085
:1054D00008B5024B1B681B6A019308BD2802030034
:1054E00008B5024B1B685B6A019308BD28020300E4
:1054F00008B5024B1B689B6A019308BD2802030094
:1055000008B5024B1B68DB6A019308BD2802030043
:1055100008B5024B1B681B6B019308BD28020300F2
:1055200008B5024B1B685B6B019308BD28020300A2
:1055300008B5024B1B681B6C019308BD28020300D1
:1055400008B5024B1B689B6C019308BD2802030041
:1055500008B5024B1B68DB6C019308BD28020300F1
:1055600008B5024B1B681B68019308BD4C02030081
:1055700008B5024B1B685B68019308BD4C02030031
:1055800008B5024B1B681B69019308BD4C02030060
:1055900008B5024B1B685B69019308BD4C02030010
:1055A00008B5024B1B689B69019308BD4C020300C0
:1055B00008B5024B1B68DB69019308BD4C02030070
:1055C00008B5024B1B681B6A019308BD4C0203001F
:1055D00008B5024B1B681B68019308BD200203003D
:1055E00008B5024B1B685B68019308BD20020300ED
:1055F00008B5024B1B685B69019308BD20020300DC
:1056000008B5024B1B68DB6A019308BD200203004A
:1056100008B5024B1B68DB6C019308BD2002030038
:1056200008B5024B1B685B6D019308BD20020300A7
:1056300008B5024B1B689B6D019308BD2002030057
:1056400008B5034B1B68D3F88830019308BD0000F0
:105650002002030008B5034B1B68D3F89430019374
:1056600008BD00002002030008B5034B1B68D3F8F7
:10567000A030019308BD00002002030008B5024BD2
:105680001B685B68019308BD4002030008B5024B2C
:105690001B689B68019308BD4002030008B5024BDC
:1056A0001B68DB68019308BD4002030008B5024B8C
:1056B0001B681B69019308BD4002030008B5024B3B
:1056C0001B685B69019308BD4002030008B5024BEB
:1056D0001B689B69019308BD4002030008B5024B9B
:1056E0001B68DB69019308BD4002030008B5024B4B
:1056F0001B681B6A019308BD4002030008B5024BFA
:105700001B681B6B019308BD4002030008B5024BE8
:105710001B685B6B019308BD4002030008B5024B98
:105720001B689B68019308BD4402030008B5024B47
:105730001B68DB68019308BD4402030008B5024BF7
:105740001B681B69019308BD4402030008B5024BA6
:105750001B685B69019308BD4402030008B5024B56
:105760001B681B6A019308BD4402030008B5024B85
:105770001B68DB6A019308BD4402030008B5024BB5
:105780001B681B6B019308BD4402030008B5024B64
:105790001B689B6B019308BD4402030008B5024BD4
:1057A0001B68DB6B019308BD4402030008B5024B84
:1057B0001B681B68019308BD1C02030008B5024B5F
:1057C0001B685B68019308BD1C02030008B5024B0F
:1057D0001B689B68019308BD1C02030008B5024BBF
:1057E0001B689B69019308BD1C02030008B5024BAE
:1057F0001B685B6A019308BD1C02030008B5024BDD
:105800001B68DB6A019308BD1C02030008B5024B4C
:105810001B681B6B019308BD1C02030008B501F057
:105820000DFD01F0F6FA18B901F008FD01F0D2FA09
:1058300001F004FDBDE8084001F0EBBA08B501F045
:10584000FDFCBDE8084001F0E8BA10B5044601705F
:1058500009B1FFF7F3FF204610BD08B501F0EEFCDB
:10586000BDE8084001F0E2BA10B5037804460BB178
:10587000FFF7F3FF204610BD10B504460068FFF7A0
:10588000ECFF204610BD37B502AC0D4644F8040DC0
:10589000FFF7D4FF01F0D2FC6B2101F0B3FA01F065
:1058A000CDFC036829469B68984701F0C7FC01219D
:1058B00001F0ABFA01F0C2FC01231A466B2101F0A2
:1058C00098FA01F0BBFC03685B69984705462046DF
:1058D000FFF7D2FFE8B203B030BD0921FFF7D3BF15
:1058E00073B502AC15460E4644F8040DFFF7A6FF4B
:1058F00001F0A4FC6B2101F085FA01F09FFC036824
:1059000031469B68984701F099FC036829469B68DB
:10591000984701F093FC012101F077FA2046FFF748
:10592000ABFF02B070BD37B504460D460190FFF7DE
:1059300085FF00212046FFF7A6FF41F258139D4244
:1059400000F087025BD020D841F218039D424DD071
:105950000CD840F678739D4242D040F6C8739D4201
:1059600041D040F628739D4260D159E041F2B8031E
:105970009D423ED041F208139D423DD041F2680362
:105980009D4253D142F020024AE041F298239D42C9
:105990003ED00ED841F2F8139D4233D041F2482355
:1059A0009D4232D041F2A8139D423FD142F04002C5
:1059B00036E041F238339D422DD006D841F2E8233B
:1059C0009D4233D142F060022AE041F288339D4289
:1059D00024D041F2D8339D4228D142F078021FE012
:1059E00042F008021CE042F0100219E042F01802F6
:1059F00016E042F0280213E042F0300210E042F0DC
:105A000038020DE042F048020AE042F0500207E09E
:105A100042F0580204E042F0680201E042F07002F5
:105A200020460021FFF75CFF012400E0002401A8CC
:105A3000FFF722FF204603B030BD37B502AC054664
:105A400044F8040DFFF7FAFE00212846FFF71BFF7C
:105A5000002100F07F022846FFF742FF2046FFF7B3
:105A60000BFF012003B030BDF7B50C4605461746C5
:105A70001E460190FFF7E2FE002C0CBF002480249C
:105A800017B144F04004E4B20EB144F020049DF894
:105A900020300BB144F010049DF824300BB144F0D9
:105AA00008049DF828300BB144F004040221284674
:105AB000FFF7E9FE00F00102224302212846FFF72A
:105AC0000FFF01A8FFF7D8FE012003B0F0BD0022B0
:105AD00011464068FFF70ABE002211464068FFF7F2
:105AE00015BE00224068FFF709BE002281F00101C7
:105AF0004068FFF7F3BD00231A4619464068FFF7D8
:105B0000E5BD00231A4619464068FFF7D7BD0022BD
:105B100011464068FFF7CABD002211464068FFF7F2
:105B2000B5BD002202214068FFF7B8BD00231A4628
:105B30004068FFF7A3BD0000024B03225A60024AEF
:105B40001A60704730E303200C920D00704710B5C7
:105B50001021044601F097FB204610BD70B5084B9C
:105B60000360044600250E4640F80C5FFFF730FC4A
:105B700030462671FFF7D4FBA560204670BD00BFFC
:105B800040920D000079FFF7D3BB10B500240470DC
:105B9000448000294FF6FF74848007DD0139994263
:105BA00009D232F811308380012301E002D10223AF
:105BB000037010BD418010BD70B586B016461A4600
:105BC000002302930C9B01930D460B9B009304460C
:105BD0000A9B31462846FFF747FD33462A460146D1
:105BE00004A8FFF7D2FF064B0498BDF814201860F4
:105BF0009A801A689B8822602046A38006B070BDF8
:105C000038E30320044B00204FF6FF7218705880D1
:105C10009A80FFF7E5BC00BF38E3032010B50446C7
:105C20000068FFF7CBFD204610BD10B504460068A4
:105C300008B1FFF7C3FD00232360A360636010BDBC
:105C400038B504460D4600680131FFF7BFFD10B1BD
:105C500084E82100012038BD10B50368044613B163
:105C600043688B4207D22046FFF7EAFF20B1A368C2
:105C70000BB922681370012010BD70B50E46114695
:105C800004461546FFF7E8FF18B92046FFF7CDFF99
:105C900009E02A463146A560206802F0D3FC22685C
:105CA000A3680021D154204670BD38B500230446B6
:105CB00003604360836003730D4639B1084602F008
:105CC00044FD294602462046FFF7D7FF204638BD4F
:105CD000884210B50B46044607D0096819B19A6886
:105CE000FFF7CBFF01E0FFF7A0FF204610BD10B586
:105CF000002304460360436083600373FFF7E8FFFB
:105D0000204610BD70B50E469AB191B185689D428E
:105D100002D800230B7070BD541EED1A0168AC420E
:105D200028BF2C4619442246304602F02BFD0023A2
:105D3000335570BD0EB4FFB509AC054654F8047B6D
:105D4000019423463A46052102A8FFF74FFD0C496E
:105D500006462846FFF7A9FF31462846FFF77CFF95
:105D6000286830B123463A46711C0194FFF73EFD86
:105D7000A860284604B0BDE8F04003B0704700BFFB
:105D8000FD920D000B68036013B15A6801325A602E
:105D900070470000024800230360FFF721BB00BFEB
:105DA00040E30320F8B506460D468F180024BD4297
:105DB0000CD0336815F8011B9B68304698470028C3
:105DC00001DB0444F3E7002C08BF04462046F8BD7D
:105DD00070B505460C46084649B102F0B6FC2B6882
:105DE000024621462846DB68BDE87040184770BD72
:105DF00008B5FFF7EDFF08BD03689B68184738B585
:105E00000D210546FFF7F8FF0A2104462846FFF753
:105E1000F3FF204438BD38B50546FFF7D9FF0446E7
:105E20002846FFF7ECFF204438BD30B58BB00B4659
:105E300000218DF82410012A98BF0A220DF12304B5
:105E4000B3FBF2F505FB123303F0FF03092B94BFFC
:105E500030333733DBB2214604F801392B46002DAD
:105E6000EED1FFF7B5FF0BB030BD10B42AB903680F
:105E70005DF8044B9B68C9B21847D2B25DF8044B79
:105E8000FFF7D3BFFFF7F1BF38B50546FFF7EDFFCA
:105E900004462846FFF7B3FF204438BD2DE9F04102
:105EA00007460E4615462AB90368C9B29B68BDE885
:105EB000F04118470A2A02D1002901DA04E0D2B2DF
:105EC000BDE8F041FFF7B1BF2D21FFF795FF2A464E
:105ED000044671423846FFF7A8FF2044BDE8F08130
:105EE00038B50546FFF7DAFF04462846FFF787FF77
:105EF000204438BD2DE9F04757EC106B82460D4623
:105F000010EE102A3B4610EE100A394602F056F801
:105F100008B1484912E027F000494FF0FF32464BE4
:105F20003046494602F04AF868B94FF0FF32424B1A
:105F30003046494602F024F828B940495046FFF758
:105F400047FFBDE8F0874FF060423D4B3046394691
:105F500002F02AF808B13B49F0E74FF060423A4BB3
:105F60003046394602F002F80028F4D1002200231E
:105F70003046394601F0FAFF40B12D215046FFF777
:105F80003BFF07F1004304461F4600E004462F494B
:105F90004FF0000800205FFA88F39D4206D90022E6
:105FA0002B4B01F09BFE08F10108F4E732463B461B
:105FB00001F0B8FB0F46064602F03EF80A22014601
:105FC00080465046FFF731FF04447DB3404601F060
:105FD000E5FC02460B463046394601F0A1FB064679
:105FE0000F4650461B49FFF7F3FE0444184B0022AE
:105FF0003046394601F048FD0F46064601F0F4FFF1
:106000000A22014680465046FFF748FF04444046B6
:1060100001F0D4FC02460B463046394601F080FBC5
:10602000013D15F0FF0506460F46DFD12046BDE8CD
:10603000F08700BF48920D00FFFFEF7F52920D00E6
:10604000FFFFEF414C920D00FFFFEFC10000E03F6A
:106050000000244050920D0038B5C9B20546FFF744
:1060600049FF04462846FFF7CAFE204438BD10B554
:106070000446FFF775F9E060236820465B6998479E
:10608000002808DAFFF76CF9E368C01AA3689842A1
:10609000F2D34FF0FF3010BD2DE9F04180460D46A0
:1060A0008F180C46BC42A4EB050607D04046FFF70C
:1060B000DEFF002802DB04F8010BF3E73046BDE801
:1060C000F0810000014B024A1A60704744E303204C
:1060D000C9920D00F0B5144B144F1E68144B0644C2
:1060E00018683B6806449E428BB01BD00AA801ADDD
:1060F00040F8286D02F0AEF9436903F26C73436116
:1061000004460FCC0FC50FCC0FC5D4F800E0C5F87E
:1061100000E001AD0FCD074C0FC40FCD0FC43E60A2
:10612000C4F800E00BB0F0BD78E3032074E3032073
:1061300070E3032048E3032008B50020FFF71EFBAF
:1061400028B1FFF703FB80F00100C0B208BD0120B9
:1061500008BD10B50020FFF713F9044668B9FFF732
:1061600037FA01280BD12046FFF762FA38B9FFF75A
:10617000E3FF30B9FFF7D2FAF9E7012010BD0020A4
:1061800010BDFFF7D9FF0020FFF7FAF8003018BF65
:10619000012010BD08B5FFF7DCFFBDE80840FFF7A0
:1061A000E7B8000008B5FFF7F5FFFFF793FF014BD5
:1061B000986808BD48E3032008B5FFF7EBFFFFF739
:1061C00089FF014B586808BD48E3032008B5FFF775
:1061D000E1FFFFF77FFF014B186808BD48E303208C
:1061E000024B1A68024B1A60704700BF54E103204B
:1061F0006CE303200021FFF7FBB910B58368044668
:1062000013B1032201469847204610BD10B504463D
:10621000FFF7F3FF204610BD13B50B46044603C835
:106220008DE8030093E8030084E803009DE8030081
:1062300083E8030002B010BD0348044A0449002368
:10624000836001F01BB800BF7CE3032010E2032051
:106250000D620D00006800F0E0BD10B5044601605D
:1062600002710AB1FFF7F6FF204610BD38B50446AB
:106270000D4600F0E3FF2A4601462046FFF7EDFFFA
:10628000204638BD006800F0D1BD10B50379044642
:106290000BB1FFF7F7FF204610BDF8B504461646D0
:1062A0001D460F46FFF7D6FF2068362100F0AAFDF5
:1062B0002068036839469B6898470121206800F0F0
:1062C000A4FD022236210123206800F092FD2068FF
:1062D00003685B6998473070206803685B6998477A
:1062E00028702046BDE8F840FFF7CCBF07B502ABE9
:1062F000002203F8012D8DF8062004210DF106027D
:10630000FFF7CBFF9DF8070001F058FB0022094B77
:1063100001F0BAFB01F0B0FE9DF8063000EE103A35
:1063200007EE900AB8EEC00A37EE800A03B05DF8B7
:1063300004FB00BF0000703F08B50C4B33B100F008
:10634000FDFB03681B699847002809DC084B63B113
:1063500000F0C8FC03681B699847002803DC08BDEF
:10636000AFF30080F2E7AFF3008008BD000000004B
:106370000000000008B5FFF7DFFFFEF7F1FF014B5B
:10638000186008BDF4E6032007B5002300931A4601
:106390006FF07701FFF75EF903B05DF804FB0000D2
:1063A00007B543880A2B08D0502B09D1094B1B682D
:1063B0003BB103B05DF804EB1847FFF7E5FF06E0DB
:1063C000002300931A466FF07701FFF743F903B0FB
:1063D0005DF804FB8CE3032010B5FEF7B1FF044623
:1063E00002F05EF9074B13B12046AFF300800021A5
:1063F0000448FFF7D3F900210348BDE81040FFF738
:106400001FB900BF00000000A1630D00704700200D
:10641000704710B51021044600F035FF204610BD2E
:1064200008B508B1FFF7F5FF08BD0022026010B5FE
:106430004FF69C728280B1F9044084808A800268A1
:106440000C6804600A6010BD10B504460068FFF7D0
:10645000B5F9204610BD38B5C468F4B12378022BD5
:1064600003D104F10C00FFF7EFFF656835B1284652
:10647000FFF7C3FE1021284600F005FFA56835B1DF
:106480002846FFF7BAFE1021284600F0FCFE204601
:106490001421BDE8384000F0F6BE38BD13B50446FF
:1064A00091E8050000234B600B602060626001A84A
:1064B00001930093FEF7B2F9204602B010BDF7B584
:1064C0000C4602AD54F8043B45F8083D06460F461D
:1064D00001A82146FFF756FC29463046FFF7DEFFAC
:1064E00001A8FEF79BF92046FEF798F938460821E7
:1064F00000F0C9FE304603B0F0BD000038B50023FF
:106500000446036010200D46FDF7C7FD28B10123A6
:1065100043608360024B0360C5602060204638BD45
:1065200064930D00826810B50AB900F0CCFEC36810
:10653000BDE81040184708B5006800F11001FFF7EA
:10654000F1FF08BD826810B50AB900F0BCFEC3684F
:10655000BDE81040184708B5006800F11001FFF7CA
:10656000F1FF08BD38B5002383608B6804460D46F3
:106570002BB102229847EB68E360AB68A36020462A
:1065800038BD0000F0B589B004686846FFF74DFFDC
:1065900000238DF808304FF00202D4E84F3F002B63
:1065A00003D1C4E8412F0029F7D102D08DF808307B
:1065B00063E014F10C0503D069462846FFF735FF68
:1065C000BFF35F8F01236370002004F10803BFF362
:1065D0005F8F53E8006F43E80002002AF9D1BFF350
:1065E0005F8F002E49D0FFF713F820B129463046BF
:1065F000FFF798FF3AE0314602A8FFF7B3FFE068E3
:10660000B4F9105008B102F085F806901020ADF8EA
:106610001C50FDF742FD0546E8B1002787601820B1
:10662000FDF73BFD044688B10146876002A8FFF7ED
:10663000F3FD049BA268A360059B049206A9E2688F
:10664000E36004F110000592FFF7EFFE0D4BEB60E5
:106650000D4B2C60AB6006A8FFF7F6FE02A8FFF713
:10666000CCFD002229460948FEF7DAFF3046FFF745
:10667000C4FD1021304600F006FE6846FFF7E4FE38
:1066800009B0F0BD37650D00AD670D00316D0D002F
:106690002DE9F04F8BB006460F46904699469DF87F
:1066A00050A0FFF753F807AD834630BB4FF62E736B
:1066B000059005A92846ADF81830FFF7B6FE14205E
:1066C000FDF7EBFC044658B102230370012343702D
:1066D000C0F804B0C0F808B029460C30FFF7A5FE9A
:1066E0003046214640F8044BFFF708FF2846FFF7E5
:1066F000ABFE05A8FFF7A8FE52E000240C231420EF
:106700006C60AC600793FDF7C8FC014618B10470DB
:1067100044704460846004A80391FFF7EFFE224BAD
:1067200008930820FDF7B9FC044628B1039B40F804
:10673000043B04A9FFF726FB00955FFA8AF34A465B
:10674000414638460994FFF709F820B9039B5B7866
:1067500003F0FF0283B1039B059304A906A8FFF78A
:1067600011FB05A93046FFF799FE06A8FEF756F87B
:1067700004A8FEF753F813E04FF69C7305A903A88D
:106780000592ADF81830FFF7FDFE05A8FFF75CFE97
:1067900005A80999FFF793FE06A8FEF73FF8DAE788
:1067A00030460BB0BDE8F08F1D690D00022AF8B528
:1067B000044606D0032A17D0012A22D10B680360B1
:1067C0001FE018200E68FDF768FC054650B1314601
:1067D000FFF7C8FE3069B6F9147008B101F09AFFEE
:1067E0002861AF8225600CE0046854B104F1100008
:1067F000FFF72AFE2046FFF700FD1821204600F093
:1068000042FD0020F8BD38B5002383608B68044644
:106810000D462BB102229847EB68E360AB68A3609A
:10682000204638BD022A70B5044606D0032A11D08E
:10683000012A18D10B68036015E014200E68FDF7DB
:106840002CFC054620B13146FFF7DDFF337C2B746D
:10685000256008E0046834B12046FFF7CEFC14211F
:10686000204600F010FD002070BD0000F0B50023B0
:1068700087B00C46BFF35F8F50E8006F40E80032EE
:10688000002AF9D1BFF35F8F002E3FD01846FEF7E4
:10689000BFFE074620B121463046FFF753FE2EE0EB
:1068A000314601A8FFF7AFFF23788DF81430102090
:1068B000FDF7F3FB0546D0B187601420FDF7EDFB33
:1068C000044678B18760014601A8FFF7A5FC039B49
:1068D000A268A360049B0392E268E3609DF8143011
:1068E000049223740A4BEB600A4B2C60AB6001A846
:1068F000FFF783FC002229460748FEF791FE304649
:10690000FFF77BFC1021304600F0BDFC07B0F0BD66
:1069100057650D0025680D00316D0D0030B585B04F
:1069200004460D4668461146FFF7C9FD7CB124B206
:1069300028460DB101F0EEFE029002A96846ADF8BE
:106940000C40FFF71FFE02A8FFF77EFD1DE0009838
:106950008DF808404FF00102D0E84F3FA34203D129
:10696000C0E8412F0029F7D102D08DF808300CE0A3
:1069700010F10C014FF0010318BF0373BFF35F8FD9
:10698000043000F8033CFFF771FF01A8FDF746FF54
:1069900005B030BD704710B51821044600F073FCF7
:1069A000204610BDF0B5037D062B8DB00E4600F1DC
:1069B00004074FF0000402D000F1080518E00CAD08
:1069C000394605F8304D2F232A460A20FEF710FDE0
:1069D000284601F0BAFE33680246DB682946304695
:1069E00098470FE024B12E213046FFF705FA044402
:1069F00015F8011D0A223046FFF744FABD4204444F
:106A0000F0D120460DB0F0BD10B5054B0446112263
:106A100040F8043B002101F03BFE204610BD00BFC2
:106A200080930D000346074A10B543F8042B01F18B
:106A3000100251F8044B43F8044B9142F9D10A7803
:106A40001A7010BD80930D0010B59DF8084044EAFF
:106A5000032343EA024242EA0161042341600375D1
:106A600010BD37B50D788B784A78C97800912946E2
:106A7000FFF7EAFF03B030BD41747047704708B5B7
:106A80000021007CFEF78CFD30EA200028BF4FF08B
:106A9000FF3008BD08B50121007CFEF781FD30EA1A
:106AA000200028BF4FF0FF3008BD08B5007CFEF77E
:106AB0006FFD20EAE07008BD08B5007CFEF760FDC0
:106AC00020EAE07008BD007CFEF77ABD10B5142105
:106AD000044600F0D8FB204610BD38B50446007CC3
:106AE0000D46FEF755FD002801DC607C28B12946E3
:106AF000207CFEF75DFD20EAE07038BD10B504464D
:106B0000002363604FF47A73A360054B2360012375
:106B10000846217463741146FEF722FD204610BD1D
:106B200094930D000022007CFEF722BD10B51422C4
:106B30000446002101F0ACFD204610BD30B50E4DDD
:106B400087B001A8FFF7F2FF296811F0010410D106
:106B50002846FDF7AAFA60B101AA21460748FFF7C7
:106B6000CDFF2846FDF7A6FA054A0649034800F07E
:106B700085FB024807B030BD90E3032094E3032077
:106B800010E203207D6A0D00002211464068FEF7E6
:106B90008DBD002211464068FEF7A8BD00221146B7
:106BA0004068FEF7B3BD00224068FEF7A7BD002293
:106BB00081F001014068FEF791BD00231A46194695
:106BC0004068FEF783BD00231A4619464068FEF769
:106BD00075BD002211464068FEF758BD0022022113
:106BE0004068FEF75BBD00231A464068FEF746BDCD
:106BF00038B5084C28252A460021204601F048FDDA
:106C00004FF0FF336360044B258004225A60034A2F
:106C10001A6038BDB0E30320A8E30320C4930D003D
:106C200070474174704708B5007CFEF721FC20EAEC
:106C3000E07008BD08B5007CFEF7F2FB20EAE070CA
:106C400008BD08B5007CFEF7FBFB30EA200028BF3A
:106C50004FF0FF3008BD08B5007CFEF7E9FB30EAD5
:106C6000200028BF4FF0FF3008BD007CFEF7F0BBCE
:106C700010B51421044600F006FB204610BD70B587
:106C8000457C04460E4625B9007CFEF7F1FB002842
:106C900005DD3146207CBDE87040FEF7B9BB2846D3
:106CA00070BD000010B5044608461146002262601F
:106CB0004FF47A72A260054A226001222074627445
:106CC0001A46FEF79DFB204610BD00BFF8930D004D
:106CD0000023007CFEF7D4BB0022FFF7F9BF007C45
:106CE000FEF7BEBB38B50C4D296811F0010411D177
:106CF0002846FDF7DAF968B1084A094B09482146E8
:106D0000FFF7D0FF2846FDF7D5F9074A07490548A0
:106D100000F0B4FA034838BD70E4032074E40320A3
:106D2000ECE30320D8E3032010E20320216C0D00E4
:106D300010B5836804460BB900F0C5FAC3689847DC
:106D4000A3681BB103222146204698472046102104
:106D5000BDE8104000F097BA7047F8B506461546F2
:106D60000C468F18BC4206D0336814F8011B9B6890
:106D700030469847F6E72846F8BD0022007CFEF72B
:106D8000A7BB0021007CFEF7ABBB0021007CFEF717
:106D9000AFBB0021007CFEF7B3BB0021007CFEF7F7
:106DA000B7BB10B51421044600F06DFA204610BDA3
:106DB00010B504464FF47A730846A3600021044BD3
:106DC000207461602360FEF7B3FB204610BD00BF56
:106DD00028940D0000231A461946007CFEF758BB84
:106DE00013B50024007C0094FEF75AFBC0B202B039
:106DF00010BDDBB2D2B2C9B2FFF7F2BF0022007CF5
:106E0000FEF756BBC9B2FFF7F9BF0022007CFEF7C0
:106E100057BB0021007CFEF783BB08B50021007C36
:106E2000FEF78EFBB0FA80F0400908BD08B50021DE
:106E3000007CFEF78DFBB0FA80F0400908BD00220F
:106E400011464068FEF752BC002211464068FEF72A
:106E50005DBC00224068FEF751BC002281F00101B8
:106E60004068FEF73BBC00231A4601214068FEF74C
:106E70002DBC00231A4619464068FEF71FBC0022AD
:106E800011464068FEF712BC002211464068FEF72A
:106E9000FDBB002202214068FEF700BC00231A4619
:106EA0004068FEF7EBBB38B5054688B104684CB1C5
:106EB000A3681BB103222146204698471021204693
:106EC00000F0E1F928461421BDE8384000F0DBB9B4
:106ED00038BD10B103685B681847704710B5036888
:106EE0000446BBB15868FEF75BFA78B923685A7C50
:106EF00012B95868FEF75CFA23685868FEF760FA22
:106F000020680023236028B1FFF7CDFF206808B177
:106F1000FFF7C9FF204610BD38B50C4B036004468F
:106F2000D0F8CC0108B1FDF7BEF8D4F8C45135B1A2
:106F30002846FFF7D3FF0421284600F0A4F9A068F3
:106F400008B1FFF7C6FF204638BD00BF50940D00C2
:106F500038B50E4C0E4B23600025022304F5E47077
:106F60006360A560C4F8C451C4F8C851FEF738FA8C
:106F7000084BC4F8CC5184F8D05123602046064A0F
:106F80000649BDE8384000F079B900BFF8E40320B5
:106F900084940D0050940D0010E20320196F0D0031
:106FA00000231A464068FEF769BB002202214068B0
:106FB000FEF774BB002211464068FEF767BB002253
:106FC00011464068FEF772BB00231A461946406816
:106FD000FEF774BB00231A4619464068FEF776BBDD
:106FE000002281F001014068FEF778BB0022406872
:106FF000FEF784BB002211464068FEF787BB0022E3
:1070000011464068FEF772BB2DE9F043002495B0AD
:1070100016460D460746FFF7F7FC214620220CA82E
:10702000009401F035FB40230C9321466B460CAADB
:107030003046FEF735F90446002844D102460121C6
:107040006868FEF733FB0221804622466868FEF737
:107050002DFB009E81462146002E34D0002932D1DE
:107060007368022B02D00A2B09D02AE0B8F1000F76
:1070700027D0716938460431FFF7F3FC20E0B9F1FD
:10708000000F1ED07469112201A801F001FB062334
:107090008DF8143001AD04F10803183418685968EC
:1070A0002A4603C20833A3421546F7D101A906A810
:1070B00007ADFFF7B7FC0FCD3C1D0FC42B68237045
:1070C0000121F669C8E70098FEF7E2F8384615B0E6
:1070D000BDE8F083024B034A1A6000225A607047F1
:1070E000CCE6032084940D0010B504460F48FEF74B
:1070F00049FD28B1A4F10B03022B01D8002010BDDB
:1071000000F07CF8FFF785FE08B1012CF6D9FFF7F7
:10711000E9FDFFF7E4FD18B1A4F10903012BEDD956
:10712000232C8CBF0020012010BD00BFD4E603201B
:10713000232838B504460D460AD8FF2908D0FFF7A2
:10714000D3FF28B129462046BDE83840FEF7C0B835
:1071500038BD38B504460D46FEF7C2F8FF2810D0FA
:10716000062804D84D2323FA00F0C30709D420468B
:10717000FFF7BAFF28B129462046BDE83840FEF7A0
:10718000B7B838BD0D2810B504469CBF0E34A4B264
:107190002046FFF7A9FF50B103212046FEF790F8E3
:1071A000032804D12046BDE81040FEF7A9B800200E
:1071B00010BDFEF7ADB8000070B50C4C0C4E0D4D77
:1071C00000212046FEF7CAFC20460B4C32462946D9
:1071D00000F054F801212046FEF7C0FC3246294653
:1071E0002046BDE8704000F049B800BFD4E6032057
:1071F00010E203204D5B0D00E4E6032038B50B4D93
:10720000296811F001040FD12846FCF74EFF58B150
:1072100021460748FFF7CCFD2846FCF74BFF054AFF
:107220000549034800F02AF8014838BDF8E6032074
:1072300010E7032010E20320596D0D0010B50B4C30
:107240002368DB070FD42046FCF72FFF58B101213C
:107250000748FFF7ADFD2046FCF72CFF054A06491D
:10726000034800F00BF8024810BD00BF24E70320DC
:10727000FCE6032010E20320596D0D000B46014689
:10728000184601F0D9B8FCF70CBF08B5FEF7B6FAFE
:107290000FB480B582B000AF07F1100454F8045B5E
:1072A000284601F052FA00F20E2323F00703ADEB5B
:1072B000030D00F5007123462A4668467C6000F005
:1072C00051F8FEF79BFA08B5FEF798FA80B59CB026
:1072D00000AF0E1A80466C220E49381D01F0B2F93B
:1072E00006F17A0323F00703ADEB030D6B22391D82
:1072F000751C684601F0A6F96D44324641460DF111
:107300006B0001F09FF9002385F86A306846FFF7AB
:10731000BCFF00BFB0940D002DE9F04184B004AF74
:1073200088B001230293022301930D4B1B68009345
:10733000064600230AA8884600F0FAF8404504AD46
:10734000044607D8C0F1180102462944304601F02E
:1073500079F901E04FF0FF342046BD46BDE8F081E9
:1073600058E1032001392DE9F0410646154647183A
:1073700004462A789AB3BC422DD2252A23D16A78B2
:10738000732A05D07A2A0ED0252A1CD101351AE09D
:10739000191D1B68013B13F8012FCAB1BC421AD05A
:1073A00004F8012BF7E7AA78752A0CD11A68391B63
:1073B000204603F10408FFF7AFFF00280BDD04446B
:1073C00003354346D5E72A78227001350134D0E7EA
:1073D00002350B46CDE721463046FFF777FF227096
:1073E000A01BBDE8F0810000184B1A68D1075CBFF4
:1073F00001221A60164B1A68D2075CBF01221A607C
:10740000144B1A68D0075CBF01221A60124B1A682D
:10741000D1075CBF01221A60104B1A68D2075CBF0B
:1074200001221A600E4B1A68D0075CBF01221A6055
:107430000C4B1A68D1075CBF01221A600A4B1A680C
:10744000D2075CBF01221A60704700BF44E70320E7
:1074500040E703203CE7032038E7032034E703201C
:1074600030E703202CE7032028E70320244B1A6889
:10747000D0075CBF01221A60224B1A68D1075CBF9B
:1074800001221A60204B1A68D2075CBF01221A60E1
:107490001E4B1A68D0075CBF01221A601C4B1A6889
:1074A000D1075CBF01221A601A4B1A68D2075CBF71
:1074B00001221A60184B1A68D0075CBF01221A60BB
:1074C000164B1A68D1075CBF01221A60144B1A6868
:1074D000D2075CBF01221A60124B1A68D0075CBF4A
:1074E00001221A60104B1A68D1075CBF01221A6092
:1074F0000E4B1A68D2075CBF01221A60704700BFAA
:1075000074E7032070E703206CE7032068E703209B
:1075100064E7032060E703205CE7032058E70320CB
:1075200054E7032050E703204CE7032048E70320FB
:107530002DE9F04114469DF82020DDF818801D4605
:107540000746079BB2B10646204629460A22002379
:1075500000F0E2FD42442046137906F8013D294639
:1075600000230A2200F0D8FD04460D4654EA050324
:10757000EAD129E003F04A02402A10D1064604F07D
:1075800007034344EA081B7906F8013DE30843EA90
:1075900045731C46154654EA0503F0D114E013F474
:1075A000804F14BF142204220646424404F00F0305
:1075B0002909D35C06F8013D230943EA05731C46FB
:1075C0000D4654EA0503F1D1B81BBDE8F081000077
:1075D000244B1A68D0075CBF01221A60224B1A683C
:1075E000D1075CBF01221A60204B1A68D2075CBF2A
:1075F00001221A601E4B1A68D0075CBF01221A6074
:107600001C4B1A68D1075CBF01221A601A4B1A681A
:10761000D2075CBF01221A60184B1A68D0075CBF02
:1076200001221A60164B1A68D1075CBF01221A604A
:10763000144B1A68D2075CBF01221A60124B1A68F9
:10764000D0075CBF01221A60104B1A68D1075CBFDB
:1076500001221A600E4B1A68D2075CBF01221A6021
:10766000704700BFA4E70320A0E703209CE70320A6
:1076700098E7032094E7032090E703208CE703209A
:1076800088E7032084E7032080E703207CE70320CA
:1076900078E70320184B1A68D1075CBF01221A60F3
:1076A000164B1A68D2075CBF01221A60144B1A6885
:1076B000D0075CBF01221A60124B1A68D1075CBF69
:1076C00001221A60104B1A68D2075CBF01221A60AF
:1076D0000E4B1A68D0075CBF01221A600C4B1A6867
:1076E000D1075CBF01221A600A4B1A68D2075CBF3F
:1076F00001221A60704700BFC4E70320C0E70320DF
:10770000BCE70320B8E70320B4E70320B0E7032079
:10771000ACE70320A8E7032081F0004102E000BFAE
:1077200083F0004330B54FEA41044FEA430594EA41
:10773000050F08BF90EA020F1FBF54EA000C55EA7C
:10774000020C7FEA645C7FEA655C00F0E2804FEA4D
:107750005454D4EB5555B8BF6D420CDD2C4480EA2F
:10776000020281EA030382EA000083EA010180EA5F
:10777000020281EA0303362D88BF30BD11F0004FAD
:107780004FEA01314FF4801C4CEA113102D04042E3
:1077900061EB410113F0004F4FEA03334CEA13331E
:1077A00002D0524263EB430394EA050F00F0A78036
:1077B000A4F10104D5F1200E0DDB02FA0EFC22FA31
:1077C00005F2801841F1000103FA0EF2801843FA25
:1077D00005F359410EE0A5F120050EF1200E012A16
:1077E00003FA0EFC28BF4CF0020C43FA05F3C01854
:1077F00051EBE37101F0004507D54FF0000EDCF1CD
:10780000000C7EEB00006EEB0101B1F5801F1BD375
:10781000B1F5001F0CD349085FEA30004FEA3C0C79
:1078200004F101044FEA445212F5800F80F09A806F
:10783000BCF1004F08BF5FEA500C50F1000041EB73
:10784000045141EA050130BD5FEA4C0C404141EB77
:10785000010111F4801FA4F10104E9D191F0000F9E
:1078600004BF01460020B1FA81F308BF2033A3F121
:107870000B03B3F120020CDA0C3208DD02F1140C18
:10788000C2F10C0201FA0CF021FA02F10CE002F153
:107890001402D8BFC2F1200C01FA02F120FA0CFC4C
:1078A000DCBF41EA0C019040E41AA2BF01EB045195
:1078B000294330BD6FEA04041F3C1CDA0C340EDC93
:1078C00004F11404C4F1200220FA04F001FA02F3D6
:1078D00040EA030021FA04F345EA030130BDC4F194
:1078E0000C04C4F1200220FA02F001FA04F340EA89
:1078F0000300294630BD21FA04F0294630BD94F03A
:10790000000F83F4801306BF81F480110134013D20
:107910004EE77FEA645C18BF7FEA655C29D094EA91
:10792000050F08BF90EA020F05D054EA000C04BF0F
:107930001946104630BD91EA030F1EBF00210020FA
:1079400030BD5FEA545C05D14000494128BF41F099
:10795000004130BD14F580043CBF01F5801130BDFD
:1079600001F0004545F0FE4141F470014FF0000088
:1079700030BD7FEA645C1ABF194610467FEA655C39
:107980001CBF0B46024650EA013406BF52EA0335DB
:1079900091EA030F41F4002130BD00BF90F0000FC9
:1079A00004BF0021704730B54FF4806404F1320405
:1079B0004FF000054FF0000150E700BF90F0000FBE
:1079C00004BF0021704730B54FF4806404F13204E5
:1079D00010F0004548BF40424FF000013EE700BFB5
:1079E00042004FEAE2014FEA31014FEA02701FBF45
:1079F00012F07F4393F07F4F81F06051704792F017
:107A0000000F14BF93F07F4F704730B54FF4607490
:107A100001F0004521F0004120E700BF50EA0102DB
:107A200008BF704730B54FF000050AE050EA010288
:107A300008BF704730B511F0004502D5404261EBF8
:107A400041014FF4806404F132045FEA915C3FF439
:107A5000DCAE4FF003025FEADC0C18BF03325FEAD2
:107A6000DC0C18BF033202EBDC02C2F1200300FA87
:107A700003FC20FA02F001FA03FE40EA0E0021FAAC
:107A800002F11444C1E600BF70B54FF0FF0C4CF496
:107A9000E06C1CEA11541DBF1CEA135594EA0C0F4C
:107AA00095EA0C0F00F0DEF82C4481EA030621EA87
:107AB0004C5123EA4C5350EA013518BF52EA0335C2
:107AC00041F4801143F4801338D0A0FB02CE4FF074
:107AD0000005E1FB02E506F00042E0FB03E54FF0A4
:107AE0000006E1FB03569CF0000F18BF4EF0010E9C
:107AF000A4F1FF04B6F5007F64F5407404D25FEA98
:107B00004E0E6D4146EB060642EAC62141EA55514A
:107B10004FEAC52040EA5E504FEACE2EB4F1FD0C8C
:107B200088BFBCF5E06F1ED8BEF1004F08BF5FEA0A
:107B3000500E50F1000041EB045170BD06F00046BC
:107B400046EA010140EA020081EA0301B4EB5C0469
:107B5000C2BFD4EB0C0541EA045170BD41F4801161
:107B60004FF0000E013C00F3AB8014F1360FDEBF86
:107B7000002001F0004170BDC4F10004203C35DA62
:107B80000C341BDC04F11404C4F1200500FA05F3E5
:107B900020FA04F001FA05F240EA020001F0004286
:107BA00021F0004110EBD37021FA04F642EB0601FC
:107BB0005EEA430E08BF20EAD37070BDC4F10C0426
:107BC000C4F1200500FA04F320FA05F001FA04F2EA
:107BD00040EA020001F0004110EBD37041F10001D6
:107BE0005EEA430E08BF20EAD37070BDC4F12005E1
:107BF00000FA05F24EEA020E20FA04F301FA05F249
:107C000043EA020321FA04F001F0004121FA04F2F0
:107C100020EA020000EBD3705EEA430E08BF20EAC0
:107C2000D37070BD94F0000F0FD101F000464000FA
:107C300041EB010111F4801F08BF013CF7D041EA7C
:107C4000060195F0000F18BF704703F00046520080
:107C500043EB030313F4801F08BF013DF7D043EA51
:107C60000603704794EA0C0F0CEA135518BF95EA07
:107C70000C0F0CD050EA410618BF52EA4306D1D18E
:107C800081EA030101F000414FF0000070BD50EAAD
:107C9000410606BF1046194652EA430619D094EA37
:107CA0000C0F02D150EA013613D195EA0C0F05D121
:107CB00052EA03361CBF104619460AD181EA030175
:107CC00001F0004141F0FE4141F470014FF000002D
:107CD00070BD41F0FE4141F4780170BD70B54FF0C8
:107CE000FF0C4CF4E06C1CEA11541DBF1CEA135548
:107CF00094EA0C0F95EA0C0F00F0A7F8A4EB05042A
:107D000081EA030E52EA03354FEA013100F0888020
:107D10004FEA03334FF0805545EA131343EA1263E9
:107D20004FEA022245EA111545EA10654FEA00269E
:107D30000EF000419D4208BF964244F1FD0404F557
:107D4000407402D25B084FEA3202B61A65EB0305B3
:107D50005B084FEA32024FF480104FF4002CB6EB70
:107D6000020E75EB030E22BFB61A754640EA0C00F0
:107D70005B084FEA3202B6EB020E75EB030E22BF30
:107D8000B61A754640EA5C005B084FEA3202B6EB71
:107D9000020E75EB030E22BFB61A754640EA9C0030
:107DA0005B084FEA3202B6EB020E75EB030E22BF00
:107DB000B61A754640EADC0055EA060E18D04FEABE
:107DC000051545EA16754FEA06164FEAC30343EA5E
:107DD00052734FEAC2025FEA1C1CC0D111F4801F2B
:107DE0000BD141EA00014FF000004FF0004CB6E724
:107DF00011F4801F04BF01430020B4F1FD0C88BFC3
:107E0000BCF5E06F3FF6AFAEB5EB030C04BFB6EBCD
:107E1000020C5FEA500C50F1000041EB045170BDC0
:107E20000EF0004E4EEA113114EB5C04C2BFD4EBED
:107E30000C0541EA045170BD41F480114FF0000E71
:107E4000013C90E645EA060E8DE60CEA135594EAED
:107E50000C0F08BF95EA0C0F3FF43BAF94EA0C0FF0
:107E60000AD150EA01347FF434AF95EA0C0F7FF465
:107E700025AF104619462CE795EA0C0F06D152EAB9
:107E800003353FF4FDAE1046194622E750EA41069D
:107E900018BF52EA43067FF4C5AE50EA41047FF4AE
:107EA0000DAF52EA43057FF4EBAE12E74FF0FF3C13
:107EB00006E000BF4FF0010C02E000BF4FF0010CE4
:107EC0004DF804CD4FEA410C7FEA6C5C4FEA430C5D
:107ED00018BF7FEA6C5C1BD001B050EA410C0CBFAC
:107EE00052EA430C91EA030F02BF90EA020F00200E
:107EF000704710F1000F91EA030F58BF994208BF75
:107F000090422CBFD8176FEAE37040F00100704731
:107F10004FEA410C7FEA6C5C02D150EA013C07D188
:107F20004FEA430C7FEA6C5CD6D152EA033CD3D0D3
:107F30005DF8040B704700BF8446104662468C46CD
:107F40001946634600E000BF01B5FFF7B7FF002800
:107F500048BF10F1000F01BD4DF808EDFFF7F4FF29
:107F60000CBF012000205DF808FB00BF4DF808EDB4
:107F7000FFF7EAFF34BF012000205DF808FB00BFD7
:107F80004DF808EDFFF7E0FF94BF012000205DF8F9
:107F900008FB00BF4DF808EDFFF7CEFF94BF0120AE
:107FA00000205DF808FB00BF4DF808EDFFF7C4FFA7
:107FB00034BF012000205DF808FB00BF4FEA410CF0
:107FC0007FEA6C5C02D150EA013C0AD14FEA430CD3
:107FD0007FEA6C5C02D152EA033C02D14FF0000010
:107FE00070474FF0010070474FEA410212F500124E
:107FF00015D211D56FF47873B3EB625212D94FEAF0
:10800000C12343F0004343EA505311F0004F23FAD9
:1080100002F018BF404270474FF00000704750EA2E
:10802000013005D111F0004008BF6FF000407047EB
:108030004FF00000704700BF4A0011D212F5001245
:1080400011D20DD56FF47873B3EB62520ED44FEAB0
:10805000C12343F0004343EA505323FA02F0704730
:108060004FF00000704750EA013002D14FF0FF306E
:1080700070474FF0000070474FEA4102B2F1E04311
:1080800024BFB3F5001CDCF1FE5C0DD901F0004CFF
:108090004FEAC0024CEA5070B2F1004F40EB83004F
:1080A00008BF20F00100704711F0804F21D113F17B
:1080B0003872BCBF01F00040704741F480114FEAB4
:1080C0005252C2F11802C2F1200C10FA0CF320FA3D
:1080D00002F018BF40F001004FEAC1234FEAD3235A
:1080E00003FA0CFC40EA0C0023FA02F34FEA4303C4
:1080F000CCE77FEA625307D150EA01331EBF4FF04D
:10810000FE4040F44000704701F0004040F0FE4067
:1081100040F40000704700BF53B94AB9002908BFB6
:1081200000281CBF4FF0FF314FF0FF3000F07EB948
:10813000ADF1080C6DE904CE00F006F8DDF804E0BE
:10814000DDE9022304B070472DE9F0478C460E4666
:108150000446089D002B50D18A4217466CD9B2FACA
:1081600082FEBEF1000F0BD0CEF1200420FA04F401
:1081700001FA0EF644EA060C02FA0EF700FA0EF4C3
:108180004FEA1749220CBCFBF9F01FFA87F809FBEC
:1081900010C642EA064600FB08F3B34209D9F619B5
:1081A00000F1FF3280F02281B34240F21F81023899
:1081B0003E44F61AA2B2B6FBF9F309FB136642EA93
:1081C000064403FB08F8A04509D9E41903F1FF327E
:1081D00080F00A81A04540F20781023B3C44C8EB95
:1081E000040443EA00400021002D62D024FA0EF47A
:1081F00000232C606B60BDE8F0878B4207D9002D0F
:1082000055D0002185E841000846BDE8F087B3FA63
:1082100083F1002940F09080B34202D3824200F201
:10822000F880841A66EB03060120B446002D40D086
:1082300085E81010BDE8F08712B90127B7FBF2F707
:10824000B7FA87FEBEF1000F35D1F31B4FEA17488E
:108250001FFA87FC0121B3FBF8F0220C08FB103653
:1082600042EA06460CFB00F3B34207D9F61900F1C7
:10827000FF3202D2B34200F2CE801046F61AA2B20A
:10828000B6FBF8F308FB136642EA06440CFB03FC5A
:10829000A44507D9E41903F1FF3202D2A44500F244
:1082A000B5801346CCEB040443EA00409CE7294622
:1082B0002846BDE8F087CEF1200106FA0EF307FA52
:1082C0000EF720FA01F94FEA1748CE4049EA0309B0
:1082D000B6FBF8FA4FEA194408FB1A661FFA87FC46
:1082E00044EA06430AFB0CF29A4200FA0EF40AD959
:1082F000DB190AF1FF3180F087809A4240F28480D6
:10830000AAF1020A3B449B1A1FFA89F9B3FBF8F160
:1083100008FB113349EA034301FB0CF69E4207D9DF
:10832000DB1901F1FF326BD29E4269D902393B441D
:108330009B1B41EA0A418EE7C1F1200E22FA0EF49E
:108340008B40234320FA0EF706FA01F44FEA134C50
:1083500026FA0EF63C43B6FBFCF9270C0CFB19661B
:108360001FFA83F847EA064609FB08F7B74202FA04
:1083700001F200FA01FA08D9F61809F1FF3041D2EA
:10838000B7423FD9A9F102091E44F61BA0B2B6FBC1
:10839000FCF40CFB146640EA064704FB08F8B845F9
:1083A00007D9FF1804F1FF3028D2B84526D9023C7E
:1083B0001F4444EA0940C8EB0707A0FB02894F4568
:1083C00044464E4614D329D065B3BAEB040367EB99
:1083D000060707FA0EFECB40CF404EEA030385E8BE
:1083E00088000021BDE8F0871346F8E61046E0E675
:1083F000B8EB020469EB03060138E5E70446D8E769
:10840000114695E78146C0E78A467CE7023B3C443B
:1084100048E708460AE702383E442FE7C245E7D35B
:108420003E46D1E72946BDE8F08700BF704700BF50
:108430000A22002100F040BA10B5054C13462CB1B9
:108440000A4601460220AFF3008010BD204610BD51
:108450000000000038B5074B1C68E36B05461BB9EC
:108460002420FDF7A3F9E063E16B2846BDE838401E
:1084700000F002B8C0E103202DE9F0410C4680462F
:1084800000F020FD21460746404600F01FFD4669EA
:1084900006F26C76B307044605D1642296FBF2F32C
:1084A00002FB13634BB94FF4C87596FBF5F305FB5C
:1084B0001365B5FA85F35B0900E001235F4A3025B7
:1084C00005FB032500F032FB00F032FB5C4B1B6820
:1084D000F3B17B689E4205D13968D8F80030FA695B
:1084E00041B90AE0304600F079FA0028F4D14FF0A3
:1084F000FF330DE0934208DB01E0934207DABA6BE9
:108500009342ACBF0023012302E0002300E00123DB
:108510002362236A012B0CBFF96B396A4FF4616344
:108520003C2091FBF3F603FB1613616893FBF0F21A
:1085300000FB12302368891AA26861601B1A921B23
:108540003B2B2360A26003DD013161603C3B04E012
:10855000002B03DA013961603C33236063683B2BF5
:1085600003DD0132A2603C3B04E0002B03DA013A58
:10857000A2603C336360A368172B22DDE2690132FD
:10858000E261A2690132062AC8BF0022A261E26844
:10859000183B0132A3602369E26055F823108A4238
:1085A00046DD01330C2B0CBF63692361A2EB010292
:1085B000E26001BF013300222261636108BFE26112
:1085C00036E0002B34DAE269013AE261A269013A4D
:1085D00048BF0622A261E2681833013AE260A36054
:1085E00032BB2369013B01D423611DE00B232361CE
:1085F00063695A1E12F0030F626103F26B7305D1B7
:10860000642193FBF1F201FB12324AB94FF4C871B5
:1086100093FBF1F201FB1233B3FA83F35B0900E041
:10862000012303F5B673E361236955F82330E36052
:1086300000F07DFA2046BDE8F08100BF04970D00F0
:10864000E4E7032010B5431E0A44914204D011F818
:10865000014B03F8014FF8E710BD884210B501EB5C
:10866000020301D8421E0BE09842FBD28118D21AB5
:10867000D34204D013F8014D01F8014DF8E710BDC5
:10868000994204D011F8014B02F8014FF8E710BDF0
:1086900002440346934202D003F8011BFAE77047F5
:1086A00038B5124B1C68A36B0546D3B91820FDF7EB
:1086B0007DF843F20E33A06303804AF6CD33438046
:1086C00041F2342383804EF26D63C3804DF6EC6338
:1086D0000381052343810B23838101220023C0E909
:1086E0000423A36B00221D615A6138BDC0E1032041
:1086F00010F8012B11F8013B012A28BF9A42F7D04C
:10870000D01A7047034611F8012B03F8012B002AF9
:10871000F9D17047024B0146186800F003B800BF5A
:10872000C0E1032070B5064608460C4600F00DF87F
:10873000451C29463046FDF769F8064618B12A4619
:108740002146FFF77FFF304670BD034613F8012B2B
:10875000002AFBD1181A0138704730B582B1451E86
:10876000013915F8013F11F8014FA34206D1EC433E
:108770001444E04201D0002BF3D11C46181B30BD3D
:10878000104630BD10B5034642B111F8014B03F855
:10879000014B013A002CF7D11A4400E010BD93427E
:1087A00002D003F8014BFAE710BD00002DE9F047B5
:1087B00080464048D0F800900F463D4615F8014BE2
:1087C00009EB0400407800F0080000F0FF0608B153
:1087D0002F46F2E72D2C03D1BD1C7C78012603E047
:1087E0002B2C04BF7C78BD1C13B1102B0AD15BE08D
:1087F000302C57D1287800F0DF0058284DD16C7804
:1088000010230235002E14BF4FF0004C6FF0004CC7
:108810000027BCFBF3FA384603FB1ACC09EB040E25
:108820009EF801E01EF0040F01D0303C0BE01EF07A
:10883000030E1BD0BEF1010F0CBF4FF0370E4FF0EF
:10884000570ECEEB0404A34210DDB7F1FF3F0AD070
:10885000504506D801D1644503DC03FB00400127E5
:1088600001E04FF0FF3715F8014BD7E77B1C0CD127
:10887000002E4FF0220314BF4FF000406FF0004075
:10888000C8F800302AB9BDE8F08706B1404272B19D
:1088900007B1691E1160BDE8F0873024002BB1D10B
:1088A0000823AFE70A23ADE7302CA3D0AAE7BDE841
:1088B000F08700BF5CE1032013460A4601460248E8
:1088C0000068FFF773BF00BFC0E103202DE9F04748
:1088D00080463C48D0F800900E46354615F8014BCE
:1088E00009EB0400407800F0080000F0FF0708B131
:1088F0002E46F2E72D2C03D1B51C7478012703E036
:108900002B2C04BF7478B51C13B1102B0AD153E083
:10891000302C4FD1287800F0DF00582845D16C78F2
:10892000102302354FF0FF3C0026BCFBF3FC03FB99
:108930000CFA6FEA0A0A304609EB040E9EF801E0D1
:108940001EF0040F01D0303C0BE01EF0030E1AD0D5
:10895000BEF1010F0CBF4FF0370E4FF0570ECEEBAC
:108960000404A3420FDD002E08DB604506D801D1C8
:10897000544503DC03FB0040012601E04FF0FF36C5
:1089800015F8014BD8E7002E07DA2223C8F800308B
:108990004FF0FF302AB9BDE8F08707B1404272B10D
:1089A00006B1691E1160BDE8F0873024002BB9D1F3
:1089B0000823B7E70A23B5E7302CABD0B2E7BDE810
:1089C000F08700BF5CE1032013460A4601460248D7
:1089D0000068FFF77BBF00BFC0E103202DE9F74F20
:1089E000044600F06FFA40F2B1739C4240F3968067
:1089F0006FF4F663E318A4F2B2729B1040F26D15A7
:108A000005FB0235A4F26D726FF0630392FBF3F382
:108A10006FF4C8622B44A5184FF4C87295FBF2F5A9
:108A20001D44642394FBF2F794FBF3F602FB174713
:108A300003FB164600F13803B7FA87FE019304F0F2
:108A4000030344604FEA5E1E014600934FF0070C9B
:108A50000B7A4A2B0ED14B69009AEC1802B906B971
:108A600027B93B2BD4BF0023012300E0002323447C
:108A7000013B3FE0442B02D14B692B443AE0009B81
:108A80002BB9002E0CBFF0464FF0010800E0F04675
:108A9000244BCC68302202FB0838A8F1040AA9460E
:108AA0000123A34204DA5AF804BF0133D944F8E79A
:108AB00009F1040393FBFCFBCBEBCB0A012CCAEBC3
:108AC000030A4B69B8BF012404F18044B3EB0A0ADE
:108AD0000B6904F1FF3403F1FF3348BF0AF1070AC1
:108AE000C3EBC30358F824405344A34201DB073BC4
:108AF000FBE74B448C690C4A02FB03430C6A23449A
:108B000041F81C3F019B9942A2D1C369826B9342F9
:108B1000ACBF002301230360012000E0002003B06C
:108B2000BDE8F08F04970D00805101007047704739
:108B3000014B186800F002B8C0E103202DE9F04FA6
:108B40008DB0074600F0BEF9B049B14E0446384634
:108B500000F0B0F9054660B9AE4BAF4A1860AF4BB4
:108B60001860AF4B30681A605A60FCF727FE35601A
:108B700048E1316879B93068FCF720FE2846FFF7F4
:108B8000E4FD411C3846FCF741FE306048B12946FF
:108B9000FFF7B8FD05E0FFF7ABFD002800F03281DC
:108BA000E9E72B789F4AA0493A2B08BF01350AAE66
:108BB00033462846FCF712FE002840F323810A9B27
:108BC000EF18EB5C2D2B03D101374FF0FF3503E09D
:108BD0002B2B08BF013701250DF1200A0DF11E0BCB
:108BE0004FF000080396CDF808A00196CDF800B02C
:108BF000334607AA8D49ADF81E803846ADF820806F
:108C0000FCF7ECFD404540F3FD80BDF81E20BDF8AB
:108C10002030DFF824923C2101FB0233BDF81C20F8
:108C20004FF4616101FB02335D4325627C4D7D4B56
:108C30002B600A9B7C491F444A4633463846FCF762
:108C4000CDFD404508DC2B686B60724B226A1A60D0
:108C5000724BC3F80080D5E00A9BC5F80490FD185C
:108C6000FB5C2D2B03D101354FF0FF3703E02B2B9D
:108C700008BF013501270023ADF81C30ADF81E30C8
:108C8000ADF820300A930396CDF808A00196CDF8F0
:108C900000B0334607AA65492846FCF79FFD002827
:108CA00004DC236AA3F56163E3630EE0BDF81E20D4
:108CB000BDF820303C2101FB0233BDF81C204FF4ED
:108CC000616101FB02335F43E7630A9B27461D4452
:108CD0004FF000092B782C2B08BF013595F8008048
:108CE000B8F14D0F26D10DF12603029309AB009385
:108CF0000396019633460DF122024D492846FCF7B2
:108D00006DFD03287ED1BDF822104B1E0B2B79D8A8
:108D1000BDF82420531E042B74D8BDF82630062B32
:108D200070D887F80880F9603A617B610A9B05EB8F
:108D300003082AE0B8F14A0F06BF01354346442331
:108D40000A220BA928460593FFF73EFEDDF82C808A
:108D5000ADF826004545059B14D14D23B9F1000F10
:108D600007D123720323E36002232361C4F8149024
:108D70000BE084F824300B23A3620123E362002379
:108D8000236302E080B23B7278610223ADF81C30AD
:108D90000023ADF81E30ADF820300A9398F800306B
:108DA0002F2B0BD10396CDF808A00196CDF800B07B
:108DB000334607AA1F494046FCF710FDBDF81E20A8
:108DC000BDF820303C2101FB0233BDF81C204FF4DC
:108DD000616101FB0233BB610A9D09F10109B9F12F
:108DE000020F454407F11C077FF474AF6068FFF77A
:108DF000F5FD084B226A1A60E36B9B1A074A18BFFD
:108E0000012313600DB0BDE8F08F00BF64970D0023
:108E1000E0E70320E8E7032068950D00E4E703207E
:108E2000C4E10320D3E7032067970D008A970D0064
:108E300076970D0089970D00C8E703202DE9F84FBC
:108E400007468B46904600F0D9F8194B1D689A46A4
:108E50003DB15C46234613F8012B42B13D2A1C4626
:108E6000F8D1384600F0CBF80020BDE8F88FCBEB06
:108E70000404A94659F8040B0028F2D022465946AA
:108E8000FFF76BFC88B959F8043C1E191B5D3D2B9C
:108E90000BD1DAF80030ED1AAD103846C8F80050A2
:108EA00000F0ADF8701CBDE8F88F4D46E1E700BF5B
:108EB0000CE2032007B501AAFFF7C0FF03B05DF87D
:108EC00004FB000000487047CCE103200268474BD8
:108ED000F0B592FBF3F403FB1422002ABCBF02F5A9
:108EE000A83202F5C0724FF4616004F52F2492FBA2
:108EF000F0F300FB13224FF03C00ACBF04F66C24EF
:108F000004F66B248B6092FBF0F300FB13224B60A2
:108F10000A600723E21C92FBF3F3C3EBC303D31AEB
:108F20008B61334B334D94FBF5F503FB054448F659
:108F3000AC62B4FBF2F2224440F2B457B4FBF7F354
:108F4000D21A2D48B4FBF0F048F69466131AB3FB1E
:108F5000F6F6344440F26D12B3FBF2F0B3FBF7F3D4
:108F6000E31A02FB1033992403EB83020232B2FBB3
:108F7000F4F20A2A04FB02F404F102064FF005049D
:108F8000B6FBF4F434BF02266FF0090616444FF422
:108F9000C87202FB05055F1C012E98BF0135B3F5B1
:108FA000997FA7EB040702D3A3F5997214E0820717
:108FB00005D16424B0FBF4F204FB12024AB94FF469
:108FC000C872B0FBF2F402FB1400B0FA80F252094E
:108FD00000E001223B331A44A5F26C750023CA61FC
:108FE0004D610E61CF600B620846F0BD80510100FB
:108FF0004FC5FDFFB13A0200B03A0200704770471A
:1090000021400D005D400D0089400D008D400D0098
:10901000000000000000000000000000BD400D0046
:10902000DD400D00000000000000000051420D0076
:10903000914D0D0069420D006F420D0000000000CF
:109040000000000075420D009B420D000000000072
:1090500000000000A9420D00914D0D0077420D0067
:109060006F420D00636D006D6178626F7469780006
:10907000537461727465642047657420656E747200
:109080007900446174612069732061626F75742096
:10909000746F20626520676F7474656E004461743C
:1090A0006120686173206265656E20676F74746506
:1090B0006E00636F6E76203D2000616E56203D206D
:1090C000006D56203D200074656D702043203D20CA
:1090D0000074656D702066203D2000416E616C6FEC
:1090E0006720496E203A2000416E616C6F6720490D
:1090F0006E20617667643A200053657269616C2066
:109100004F7574707574203A2000766563746F72C1
:109110003A3A5F4D5F72616E67655F636865636B66
:109120003A205F5F6E202877686963682069732042
:10913000257A7529203E3D20746869732D3E736938
:109140007A65282920287768696368206973202553
:109150007A75290064617461203D20004461746166
:10916000204176673A20005472696D6D696E670020
:109170004469646E74207472696D6D31007B2022C5
:10918000776C31223A2025302E35662C2022776CE0
:1091900032223A2025302E35662C2022776C33225D
:1091A0003A2025302E32662C202274656D70223ACA
:1091B0002025302E32662C202262223A2025302EA5
:1091C00032667D006368617267696E67004661752B
:1091D0006C74004D61696E7461696E6365204D6FDA
:1091E0006465207374617274656420666F722025F3
:1091F0007300616C6572747300426F726F6E2D3212
:109200000000000000000000000000002D5B0D00C9
:10921000235B0D00195B0D000F5B0D00035B0D0060
:10922000F75A0D00EB5A0D00E35A0D00D95A0D0004
:10923000CF5A0D0009700D00000000000000000072
:109240004D5B0D004F5B0D006E616E006F7666002A
:109250002E00696E66006261756400536572696113
:109260006C0053657269616C3100747970650070CF
:109270006172616D00636D6400696400686E640012
:109280007374726D0066696C74006C766C00616456
:109290006448616E646C65720072656D6F766548D6
:1092A000616E646C657200656E756D48616E646CAC
:1092B000657273004A534F4E53747265616D4C6F03
:1092C0006748616E646C65720061707000253031B2
:1092D000307520005D20002564002C200028293AEC
:1092E0002000205B00636F6465203D20002569003D
:1092F00064657461696C73203D20000D0A006C6E1A
:1093000000666E00636F64650064657461696C007B
:109310006E6F6E6500747261636500696E666F00E2
:109320007761726E006572726F720070616E696350
:1093300000616C6C00252B3033643A2530327500A7
:1093400025592D256D2D25645425483A254D3A255E
:1093500053257A0061736374696D65000000000035
:10936000000000000D640D0013640D0057640D0033
:1093700021640D000F640D000000000000000000DB
:10938000A5690D0095690D0097690D0000000000AA
:10939000000000007D6A0D00CD6A0D00DB6A0D0043
:1093A000A55D0D00B96A0D007F6A0D00956A0D007C
:1093B000C76A0D00AB6A0D00796A0D00000000005D
:1093C00000000000E76B0D00DD6B0D00D36B0D009E
:1093D000896B0D00C76B0D00BB6B0D00AF6B0D00F3
:1093E000A76B0D009D6B0D00936B0D0009700D00B8
:1093F0000000000000000000216C0D00716C0D00E9
:109400007F6C0D00A55D0D00356C0D00576C0D00D7
:10941000436C0D006B6C0D00236C0D00276C0D0070
:109420000000000000000000596D0D00A36D0D004C
:109430007B6D0D005B6D0D00836D0D008B6D0D0060
:10944000936D0D009B6D0D000000000000000000FA
:109450009D6E0D00936E0D00896E0D007F6E0D00E8
:10946000736E0D00676E0D005B6E0D00536E0D0088
:10947000496E0D003F6E0D0009700D0000000000E8
:1094800000000000A16F0D00AB6F0D00B56F0D0067
:10949000BF6F0D00C96F0D00D56F0D00E16F0D009E
:1094A000ED6F0D00F56F0D00FF6F0D0009700D00E1
:1094B0006E6F7420656E6F75676820737061636589
:1094C00020666F7220666F726D61742065787061BE
:1094D0006E73696F6E2028506C65617365207375BB
:1094E000626D69742066756C6C20627567207265A8
:1094F000706F727420617420687474703A2F2F67D3
:1095000063632E676E752E6F72672F627567732E99
:1095100068746D6C293A0A20202020002D2B785881
:1095200030313233343536373839616263646566D9
:109530003031323334353637383941424344454689
:10954000002D2B7858303132333435363738396185
:109550006263646566414243444546002D303132C2
:109560003334353637383900474D540048535400AA
:10957000414B535400505354004D535400435354E3
:109580000045535400415354004E53540043455436
:109590000049535400454554004A535400002020CC
:1095A0002020202020202028282828282020202093
:1095B0002020202020202020202020202020881053
:1095C00010101010101010101010101010100404B3
:1095D00004040404040404041010101010101041BA
:1095E000414141414101010101010101010101012B
:1095F00001010101010101010110101010101042C0
:1096000042424242420202020202020202020202FA
:1096100002020202020202020210101010200000D8
:10962000000000000000000000000000000000003A
:10963000000000000000000000000000000000002A
:10964000000000000000000000000000000000001A
:10965000000000000000000000000000000000000A
:1096600000000000000000000000000000000000FA
:1096700000000000000000000000000000000000EA
:1096800000000000000000000000000000000000DA
:1096900000000000000000000000000000000000CA
:1096A00000000000000000000000000000000000BA
:1096B00000000000000000000000000000000000AA
:1096C000000000000000000000000000000000009A
:1096D000000000000000000000000000000000008A
:1096E000000000000000000000000000000000007A
:1096F000000000000000000000000000000000006A
:10970000430000001F0000001C0000001F000000BC
:109710001E0000001F0000001E0000001F000000CF
:109720001F0000001E0000001F0000001E000000BF
:109730001F0000001F0000001D0000001F000000AF
:109740001E0000001F0000001E0000001F0000009F
:109750001F0000001E0000001F0000001E0000008F
:109760001F000000545A002531305B5E302D392C2B
:109770002B2D5D256E004D256875256E2E2568758F
:10978000256E2E256875256E002F256875256E3A85
:10979000256875256E3A256875256E004D420D00C9
:1097A000A5510D00395B0D00055C0D00955D0D00A8
:1097B000C5600D00E1610D0039620D00F16B0D0017
:1097C000516F0D00D5700D00B9710D00E9730D00DA
:1097D0006D740D00D1750D0095760D000000000030
:0897E00068E9FF7F01000000B1
:1097E80054930D001C950D009D950D000000000080
:1097F800A0960D00C0960D00E0960D000000000038
:1098080000000000000000000000000000970D00AC
:109818000000000000000000000000000000000040
:109828000000000000000000000000000000000030
:109838000000000000000000000000000000000020
:1098480000000000000000000000000060E10320AC
:1098580068950D0068950D000100000000000000EB
:109868004A000000000000000000000000000000A6
:109878000000000000000000000000004A00000096
:1098880000000000000000000000000000000000D0
:0C9898000000000000000000ECE70320CE
:1098A400FFFFFFFF00000102030405060708090A81
:1098B4000B0C0D0E0F101112131415161718191A7C
:0898C4001B1C1D1E1F202800C3
:0498CC007856341284
:04000003D0004020C9
:00000001FF
